:020000040800F2
:1000000000400020E11300084103000843030008FA
:1000100045030008470300084903000800000000EA
:100020000000000000000000000000004B0300087A
:100030004D030008000000004F03000851030008B2
:10004000311400083114000831140008311400087C
:10005000311400083114000831140008311400086C
:10006000311400083114000831140008311400085C
:10007000311400083114000831140008311400084C
:10008000311400083114000831140008311400083C
:10009000311400083114000831140008311400082C
:1000A000311400083114000831140008311400081C
:1000B00031140008000000000000000031140008A6
:1000C0003114000831140008311400080000000049
:1000D00031140008311400083114000831140008EC
:1000E0003114000831140008311400080000000029
:1000F0000000000000000000000000000000000000
:1001000000000000000000000000000031140008A2
:100110000000000000000000311400080000000092
:1001200000000000000000000000000000000000CF
:1001300000000000000000000000000000000000BF
:100140003114000831140008000000000000000015
:10015000000000000000000000000000000000009F
:10016000311400083114000831140008311400085B
:100170003114000800000000000000000000000032
:0801800000000000311400082A
:1001880010B5054C237833B9044B13B10448AFF3C9
:1001980000800123237010BD3C04002000000000F3
:1001A8005C15000808B5034B1BB103490348AFF3BE
:1001B800008008BD00000000400400205C15000815
:1001C80070B58AB00024059406940794089409949D
:1001D800204B5A6942F400225A615A6902F40022FB
:1001E8000192019A5A6942F480025A615A6902F4EA
:1001F80080020292029A5A6942F400325A615A699C
:1002080002F400320392039A5A6942F480225A6136
:100218005B6903F480230493049B0F4D22464FF43B
:100228000051284600F070FA4FF4005605960B4B23
:100238000693079405A90A4800F0A2F90596012338
:1002480006930794089405A9284600F099F90AB07E
:1002580070BD00BF001002400004004800002110DB
:100268000008004830B591B0002407940894099418
:100278000C94019402940394049405940225069521
:1002880001230A9310230B930D950E944FF46013DA
:100298000F9306A800F03EFA0F23019302950394EA
:1002A8004FF4806304930594294601A800F084FD67
:1002B80011B030BD38B500F0CFF8FFF7D3FFFFF726
:1002C8007FFF00F053F864240A4D01224FF40051D7
:1002D800284600F019FA204600F0E2F800224FF410
:1002E8000051284600F010FA642000F0D9F8643470
:1002F800EAE700BF000400487047000000B583B07B
:100308000C4B9A6942F001029A619A6902F0010263
:100318000092009ADA6942F08052DA61DB6903F0F0
:1003280080530193019B072000F0CEF803B05DF8DD
:1003380004FB00BF001002407047FEE7FEE7FEE73F
:10034800FEE770477047704708B500F097F808BD9A
:10035800054BD3F8882042F47002C3F888204FF088
:1003680000629A60704700BF00ED00E008B50B48D6
:100378000B4B03604FF41643436000238360C36054
:1003880003610C2242618361C3610362436200F02E
:10039800F1FF00B908BDFFF7AFFFFBE758040020E5
:1003A8000044004000B589B00023039304930593EB
:1003B800069307930268144B9A4202D009B05DF87D
:1003C80004FB03F5E633DA6942F40032DA61DA69EC
:1003D80002F400320192019A5A6942F400325A61D9
:1003E8005B6903F400330293029B0C2303930223FB
:1003F80004930023059306930723079303A94FF05B
:10040800904000F0BDF8D9E70044004010B504461C
:100418000E4B18784FF47A73B3FBF0F30C4A10685C
:10042800B0FBF3F000F096F868B90F2C01D9012061
:100438000AE0002221464FF0FF3000F057F8054B44
:100448001C60002000E0012010BD00BF0400002057
:10045800000000200800002008B5074A136843F090
:1004680010031360032000F02FF80020FFF7CEFFE1
:10047800FFF744FF002008BD00200240034A11682E
:10048800034B1B780B441360704700BFD80400204F
:1004980004000020014B1868704700BFD8040020F2
:1004A80038B50446FFF7F6FF0546B4F1FF3F02D022
:1004B800044B1B781C44FFF7EDFF401BA042FAD306
:1004C80038BD00BF04000020074AD36823F4E06366
:1004D8001B041B0C000200F4E060034343F0BF63FD
:1004E80043F40033D360704700ED00E030B4174B9D
:1004F800DB68C3F30223C3F10704042C28BF0424D8
:100508001D1D062D18D9033B4FF0FF3505FA04F4DD
:1005180021EA0401994005FA03F322EA0303194387
:1005280000280BDB0901C9B200F1604000F5614009
:1005380080F8001330BC70470023E5E700F00F0097
:100548000901C9B2024B1954F4E700BF00ED00E0FD
:1005580014ED00E00138B0F1807F0AD2064B5860F4
:10056800064AF02182F823100020986007221A60BA
:1005780070470120704700BF10E000E000ED00E088
:10058800F0B583B0002336E0032400E00024B44033
:100598003C430235584E46F82540584C2568D4430C
:1005A80025EA02064F6817F4803F01D042EA0506A3
:1005B800524D2E606D6804EA05064F6817F4003F37
:1005C80001D042EA05064D4D6E60AD6804EA0506A5
:1005D8004F6817F4801F01D042EA0506474DAE6008
:1005E800ED682C404E6816F4001F01D042EA05045D
:1005F800424AD46001330A6832FA03F47AD00124FB
:100608009C402240F6D04D686E1E012E03D9112D54
:1006180001D0122D12D186685F000325BD4026EA5D
:100628000506CD68BD4035438560466826EA040660
:100638004D68C5F300149C4034434460C7685E00AD
:100648000325B540EC4327EA05078D68B5403D43CF
:10065800C5604D68022D01D0122D13D1DF0808376F
:1006680050F827E003F007054FEA850C0F2505FA37
:100678000CF52EEA050E0D6905FA0CF545EA0E058E
:1006880040F82750056825404C6804F00304B4403E
:100698002C4304604C6814F0805FABD0184CA569FB
:1006A80045F00105A561A46904F001040194019CC9
:1006B8009D08AE1C104C54F8267003F00304A600E5
:1006C8000F24B44027EA0407B0F1904F3FF45EAF1F
:1006D8000C4CA0420AD004F58064A04208D004F56E
:1006E8008064A0423FF450AF052450E701244EE750
:1006F80002244CE703B0F0BD0000014000040140B3
:1007080000100240000400480AB18161704781620C
:1007180070470000002800F0018370B582B00446DD
:10072800036813F0010F3BD0B54B5B6803F00C0373
:10073800042B1ED0B24B5B6803F00C03082B13D0BC
:100748006368B3F5803F68D0002B40F0928003F1D6
:10075800804303F504331A6822F480321A601A6859
:1007680022F480221A605DE0A54B5B6813F4803F99
:10077800E6D04FF4003393FAA3F3A14B19684FF472
:10078800003393FAA3F3B3FA83F303F01F030122B0
:1007980002FA03F30B4203D06368002B00F0C08217
:1007A800236813F0020F00F0C580954B5B6813F0C7
:1007B8000C0F00F09C80924B5B6803F00C03082B35
:1007C80000F08F802369002B00F0F280012292FA5A
:1007D800A2F3B3FA83F303F1845303F584139B0064
:1007E8001A60FFF757FE0546022393FAA3F3844BDA
:1007F8001968022393FAA3F3B3FA83F303F01F03F0
:10080800012202FA03F30B4240F0C380FFF742FED5
:10081800401B0228E8D903208BE2794A136843F485
:1008280080331360764AD36A23F00F03A1680B4321
:10083800D3626368002B36D0FFF72CFE05464FF4D1
:10084800003393FAA3F36E4B19684FF4003393FA0D
:10085800A3F3B3FA83F303F01F03012202FA03F3AD
:100868000B429DD1FFF716FE401B6428E7D90320F1
:100878005FE2B3F5A02F09D0614B1A6822F48032E9
:100888001A601A6822F480221A60CBE703F18043C9
:10089800A3F53C331A6842F480221A601A6842F4BD
:1008A80080321A60BEE7FFF7F5FD05464FF40033C6
:1008B80093FAA3F3524B19684FF4003393FAA3F356
:1008C800B3FA83F303F01F03012202FA03F30B4286
:1008D8003FF466AFFFF7DEFD401B6428E6D903202E
:1008E80027E2474B5B6813F4803F7FF46BAF02232A
:1008F80093FAA3F3424B1968022393FAA3F3B3FACA
:1009080083F303F01F03012202FA03F30B4203D01F
:100918002369934240F006823948036823F0F803BC
:100928006169F82292FAA2F2B2FA82F201FA02F2AC
:1009380013430360236813F0080F00F08D80A36948
:10094800002B61D0012191FAA1F2B2FA82F22D4B6B
:1009580013449B001960FFF79DFD0546022393FA97
:10096800A3F293FAA3F293FAA3F2254A516A93FAEF
:10097800A3F3B3FA83F303F01F03012202FA03F38C
:100988000B4269D1FFF786FD401B0228E6D90320F8
:10099800CFE11B48036823F0F8036169F82292FA53
:1009A800A2F2B2FA82F201FA02F213430360C1E73B
:1009B800012393FAA3F3B3FA83F303F1845303F502
:1009C80084139B0000221A60FFF764FD054602238A
:1009D80093FAA3F30A4B1968022393FAA3F3B3FA21
:1009E80083F303F01F03012202FA03F30B42A1D0A1
:1009F800FFF750FD401B0228E9D9032099E100BF09
:100A08000010024020819010012292FAA2F2B2FA5C
:100A180082F2B74B13449B0000221A60FFF73AFD9D
:100A28000546022393FAA3F293FAA3F293FAA3F2E8
:100A3800B04A516A93FAA3F3B3FA83F303F01F039E
:100A4800012202FA03F30B4206D0FFF723FD401BF5
:100A58000228E6D903206CE1236813F0040F00F0A4
:100A6800A980A44BDB6913F0805F0BD1A14BDA6935
:100A780042F08052DA61DB6903F080530193019BF5
:100A8800012500E000259C4B1B6813F4807F10D0E3
:100A9800E368012B21D063BB03F1804303F50433E2
:100AA8001A6A22F001021A621A6A22F004021A6211
:100AB80018E0914A136843F480731360FFF7EAFC67
:100AC80006468D4B1B6813F4807FE1D1FFF7E2FCEB
:100AD800801B6428F5D903202BE1864A136A43F06A
:100AE80001031362E368002B3CD0FFF7D3FC0646F2
:100AF8002EE0052B09D07F4B1A6A22F001021A62F8
:100B08001A6A22F004021A62ECE77A4B1A6A42F077
:100B180004021A621A6A42F001021A62E2E7022328
:100B280093FAA3F3734B596A022393FAA3F3B3FA24
:100B380083F303F01F03012202FA03F3194238D1A9
:100B4800FFF7A8FC801B41F28833984200F2EC8042
:100B5800022393FAA3F293FAA3F3002BDFD0654B99
:100B6800196AE1E7FFF796FC064618E0022393FAB4
:100B7800A3F3604B596A022393FAA3F3B3FA83F3FE
:100B880003F01F03012202FA03F3194211D0FFF701
:100B980081FC801B41F28833984200F2C78002230F
:100BA80093FAA3F293FAA3F3002BDFD0514B196AFF
:100BB800E1E7B5BBE369002B00F0BA804D4A526803
:100BC80002F00C02082A00F09980022B2FD04FF077
:100BD800807393FAA3F3B3FA83F303F1845303F511
:100BE80084139B0000221A60FFF754FC04464FF060
:100BF800007393FAA3F33F4B19684FF0007393FA0D
:100C0800A3F3B3FA83F303F01F03012202FA03F3F9
:100C180019426BD0FFF73EFC001B0228E7D90320DE
:100C280087E0344AD36923F08053D361C2E74FF099
:100C3800807393FAA3F3B3FA83F303F1845303F5B0
:100C480084139B0000221A60FFF724FC05464FF02E
:100C5800007393FAA3F3274B19684FF0007393FAC4
:100C6800A3F3B3FA83F303F01F03012202FA03F399
:100C7800194206D0FFF70EFC401B0228E7D90320D3
:100C880057E01C494B6823F47413626A206A0243D4
:100C980013434B604FF0807393FAA3F3B3FA83F3D3
:100CA80003F1845303F584139B0001221A60FFF7B4
:100CB800F1FB04464FF0007393FAA3F30D4B196848
:100CC8004FF0007393FAA3F3B3FA83F303F01F030F
:100CD800012202FA03F3194206D1FFF7DBFB001BDE
:100CE8000228E7D9032024E0002022E0002020E0A9
:100CF800208190100010024000700040012B1AD093
:100D0800104B5B6803F48031226A914215D103F4D9
:100D18007013626A934212D100200AE001207047E2
:100D2800012006E0012004E0032002E0032000E0A7
:100D3800002002B070BD0120FBE70120F9E7012087
:100D4800F7E700BF00100240164B5B6803F00C0287
:100D5800082A01D01448704703F470114FF4701238
:100D680092FAA2F2B2FA82F221FA02F20F49885CF0
:100D78000C4AD26A02F00F020F2191FAA1F1B1FADE
:100D880081F1CA400A498A5C13F4803F05D0064BBA
:100D9800B3FBF2F300FB03F07047064B03FB00F0D4
:100DA800704700BF0010024000127A008C1500083E
:100DB8009C15000800093D00002800F0BE8070B5B1
:100DC8000D460446614B1B6803F007038B420BD2A8
:100DD8005E4A136823F007030B431360136803F09C
:100DE80007038B4240F0AB80236813F0020F06D054
:100DF800574A536823F0F003A1680B4353602368F4
:100E080013F0010F5AD06368012B2DD0022B40D06C
:100E1800022292FAA2F24E4A1068022292FAA2F232
:100E2800B2FA82F202F01F02012101FA02F2104224
:100E380000F0878046494A6822F0030213434B605A
:100E4800FFF728FB0646424B5B6803F00C03626819
:100E5800B3EB820F32D0FFF71DFB801B41F28833C2
:100E68009842F0D9032067E04FF4003292FAA2F2D8
:100E7800374A10684FF4003292FAA2F2B2FA82F2BC
:100E880002F01F02012101FA02F20242D2D101202E
:100E980052E04FF0007292FAA2F22D4A10684FF019
:100EA800007292FAA2F2B2FA82F202F01F02012153
:100EB80001FA02F21042BDD101203DE0234B1B682C
:100EC80003F00703AB420AD9204A136823F007034B
:100ED8002B431360136803F00703AB4233D1236835
:100EE80013F0040F06D01A4A536823F4E063E1684C
:100EF8000B435360236813F0080F07D0144A536854
:100F080023F46053216943EAC1035360FFF71CFFD0
:100F18000F4B5B6803F0F003F02292FAA2F2B2FAE8
:100F280082F2D3400B4AD35CD8400B4B18600B4B72
:100F38001868FFF76BFA002070BD01207047012088
:100F4800FAE70120F8E70120F6E700BF0020024099
:100F5800001002407415000800000020080000205E
:100F6800014B1868704700BF0000002008B5FFF764
:100F7800F7FF074B5B6803F4E0634FF4E06292FA13
:100F8800A2F2B2FA82F2D340024AD35CD84008BD3A
:100F9800001002408415000808B5FFF7E1FF074B71
:100FA8005B6803F460534FF4605292FAA2F2B2FA0B
:100FB80082F2D340024AD35CD84008BD00100240F8
:100FC8008415000838B504468368026913434269EA
:100FD8001343C2691343016808686C4A024013430B
:100FE8000B602268536823F44053E1680B43536055
:100FF800A269236A1A4321688B6823F43063134378
:101008008B602368624A934215D0624A934228D083
:1010180002F58062934220D01025E369B3F5004FB2
:1010280021D0082D00F2A680DFE805F06B7C86A4AD
:1010380091A4A4A49B00584B1B6B03F00303032B40
:1010480009D8DFE803F00204060C0025E5E70425CB
:10105800E3E70825E1E71025DFE70025DDE70225BE
:10106800DBE70025D9E7082D48D8DFE805F0051D9E
:101078002847334747473E00FFF778FF6268530821
:1010880003EB4003B3FBF2F39BB2A3F110014FF65D
:10109800EF72914271D89AB222F00F02C3F3420361
:1010A80013432268D3606BE0FFF776FF626853084A
:1010B80003EB4003B3FBF2F39BB20025E5E762685C
:1010C800530803F5740303F51053B3FBF2F39BB213
:1010D8000025DAE7FFF738FE6268530803EB4003A0
:1010E800B3FBF2F39BB20025CFE76268530803F520
:1010F8008033B3FBF2F39BB20025C6E7012500233A
:10110800C3E7FFF733FF626800EB5203B3FBF2F368
:101118009BB2A3F110014FF6EF7291422FD82268CB
:10112800D3602DE0FFF738FF626800EB5203B3FB92
:10113800F2F39BB20025ECE76268530803F5F40369
:1011480003F59053B3FBF2F39BB20025E1E7FFF7F9
:10115800FBFD626800EB5203B3FBF2F39BB2002580
:10116800D7E76268530803F50043B3FBF2F39BB279
:101178000025CEE701250023CBE7012500E0012566
:10118800002323666366284638BD00BFF369FFEF76
:10119800003801400044004000100240436A13F048
:1011A800010F06D00268536823F40033816A0B43A9
:1011B8005360436A13F0020F06D00268536823F4A1
:1011C8008033C16A0B435360436A13F0040F06D09F
:1011D8000268536823F48023016B0B435360436A0E
:1011E80013F0080F06D00268536823F40043416BDC
:1011F8000B435360436A13F0100F06D002689368DC
:1012080023F48053816B0B439360436A13F0200FE0
:1012180006D00268936823F40053C16B0B439360B4
:10122800436A13F0400F0AD00268536823F480130E
:10123800016C0B435360036CB3F5801F0BD0436AFA
:1012480013F0800F06D00268536823F40023816CE2
:101258000B43536070470268536823F4C003416C22
:101268000B435360EBE72DE9F84305460F46164656
:101278009946DDF820802C68E46937EA04030CBF3E
:1012880001240024B4423CD1B8F1FF3FF3D0FFF76A
:1012980001F9A0EB0900404521D8B8F1000F1ED094
:1012A8002B681A6812F0040FE5D0DA6912F4006F9F
:1012B800E1D04FF400621A622A68136823F4D073ED
:1012C80013602A68936823F00103936020236B67F7
:1012D800AB67EB67002385F87030032012E02A68BB
:1012E800136823F4D07313602A68936823F001030A
:1012F800936020236B67AB67002385F87030032069
:1013080000E00020BDE8F88330B583B00446002330
:10131800C367FFF7BFF8054623681B6813F0080F7B
:101328000CD123681B6813F0040F15D120236367C1
:10133800A367002084F8700003B030BD6FF07E43CF
:101348000093034600224FF400112046FFF78BFF5D
:101358000028E6D00320EFE76FF07E4300932B468A
:1013680000224FF480012046FFF77DFF0028DDD0E2
:101378000320E1E768B310B50446436F03B32423A1
:1013880063672268136823F0010313602046FFF7A0
:1013980019FE012813D0636ABBB92268536823F485
:1013A800904353602268936823F02A03936022686D
:1013B800136843F0010313602046FFF7A5FF10BD33
:1013C80080F87030FEF7EEFFD9E72046FFF7E6FE1B
:1013D800E3E7012070470000DFF834D0002103E084
:1013E8000C4B5B58435004310B480C4B42189A4243
:1013F800F6D30B4A02E0002342F8043B094B9A4219
:10140800F9D3FEF7A5FF00F011F8FEF753FFFEE74A
:1014180000400020BC150008000000203C0400200B
:101428003C04002000050020FEE7000070B50D4ECA
:101438000D4D761BB61006D0002455F8043B013438
:101448009847A642F9D1094E094D761B00F082F85B
:10145800B61006D0002455F8043B01349847A6423C
:10146800F9D170BDB0150008B0150008B81500080E
:10147800B0150008024B13B1024800F005B87047D8
:10148800000000009D140008002301461A46184673
:1014980000F01AB838B5084B084D5B1B9C1007D0F4
:1014A800043B1D44013C55F804399847002CF9D1F8
:1014B800BDE8384000F054B8BC150008B81500085D
:1014C800704700BF704700BF2DE9F047DFF880A0E4
:1014D8000646DAF8000098460F469146FFF7F0FFF7
:1014E8001A4B1B68D3F8484124B365681F2D26DCC6
:1014F8005EB9AB1C0135DAF80000656044F823706A
:10150800FFF7E0FF0020BDE8F08704EB8503012129
:10151800C3F88890D4F88821A9400A43022EC4F859
:101528008821C3F80881E4D1D4F88C311943C4F870
:101538008C11DEE703F5A674C3F84841D5E7DAF85D
:101548000000FFF7BFFF4FF0FF30DCE7AC150008E5
:1015580038040020F8B500BFF8BC08BC9E467047A8
:0C156800F8B500BFF8BC08BC9E467047F8
:10157400000000000000000001020304060708093F
:101584000000000001020304020304050607080921
:101594000A0B0C0D0E0F10100102030405060708B8
:0C15A400090A0B0C0D0E0F1010000020A7
:0815B0007D140008AD010008E4
:0415B800890100089D
:1015BC0000127A0001000000100000000000000082
:1015CC0000000000FC02002064030020CC0300207B
:1015DC0000000000000000000000000000000000FF
:1015EC0000000000000000000000000000000000EF
:1015FC0000000000000000000000000000000000DF
:10160C0000000000000000000000000000000000CE
:10161C0000000000000000000000000000000000BE
:10162C0000000000000000000000000000000000AE
:10163C00000000000000000000000000000000009E
:10164C00000000000000000000000000000000008E
:10165C00000000000000000000000000000000007E
:10166C00000000000000000001000000000000006D
:10167C000E33CDAB34126DE6ECDE05000B00000032
:10168C00000000000000000000000000000000004E
:10169C00000000000000000000000000000000003E
:1016AC00000000000000000000000000000000002E
:1016BC00000000000000000000000000000000001E
:0C19EC000000000000000000DC040020EF
:04000005080013E1FB
:00000001FF
