:020000040800F2
:10000000004000201D2300087D1200087F12000818
:100010008112000883120008851200080000000009
:10002000000000000000000000000000871200082F
:1000300089120008000000008B1200088D120008D1
:100040006D2300086D2300086D2300086D23000850
:100050006D2300086D2300086D2300086D23000840
:100060006D2300086D2300086D2300086D23000830
:100070006D2300086D2300086D2300086D23000820
:100080006D2300086D2300086D2300086D23000810
:100090006D2300086D2300086D2300086D23000800
:1000A0006D2300086D2300086D2300086D230008F0
:1000B0006D23000800000000000000006D23000810
:1000C0006D2300086D2300086D2300080000000068
:1000D0006D2300086D2300086D2300086D230008C0
:1000E0006D2300086D2300086D2300080000000048
:1000F0000000000000000000000000000000000000
:100100000000000000000000000000006D23000857
:1001100000000000000000006D2300080000000047
:1001200000000000000000000000000000000000CF
:1001300000000000000000000000000000000000BF
:100140006D2300086D23000800000000000000007F
:10015000000000000000000000000000000000009F
:100160006D2300086D2300086D2300086D2300082F
:100170006D230008000000000000000000000000E7
:08018000000000006D230008DF
:1001C00010B5054C237833B9044B13B10448AFF391
:1001D00000800123237010BDB8090020000000003A
:1001E0007083000808B5034B1BB103490348AFF304
:1001F000008008BD00000000BC09002070830008DA
:1002000001F0FF01102A2BDB10F0070F08D010F8C7
:10021000013B013A8B422DD010F0070F42B3F6D1CB
:10022000F0B441EA012141EA014122F007047FF0E4
:1002300000070023F0E80256083C85EA010586EA3B
:10024000010685FA47F5A3FA87F586FA47F6A5FA77
:1002500087F68EB9EED1F0BC01F0FF0102F0070283
:1002600032B110F8013B013A83EA010313B1F8D12E
:100270000020704701387047002D06BF354603380F
:10028000073815F0010F07D1013015F4807F02BF48
:10029000013015F4C03F0130F0BC0138704700BF99
:1002A000844641EA000313F003036DD1403A41D381
:1002B00051F8043B40F8043B51F8043B40F8043B40
:1002C00051F8043B40F8043B51F8043B40F8043B30
:1002D00051F8043B40F8043B51F8043B40F8043B20
:1002E00051F8043B40F8043B51F8043B40F8043B10
:1002F00051F8043B40F8043B51F8043B40F8043B00
:1003000051F8043B40F8043B51F8043B40F8043BEF
:1003100051F8043B40F8043B51F8043B40F8043BDF
:1003200051F8043B40F8043B51F8043B40F8043BCF
:10033000403ABDD2303211D351F8043B40F8043B6F
:1003400051F8043B40F8043B51F8043B40F8043BAF
:1003500051F8043B40F8043B103AEDD20C3205D37F
:1003600051F8043B40F8043B043AF9D2043208D077
:10037000D2071CBF11F8013B00F8013B01D30B88E9
:1003800003806046704700BF082A13D38B078DD0C7
:1003900010F003038AD0C3F10403D21ADB071CBF99
:1003A00011F8013B00F8013B80D331F8023B20F803
:1003B000023B7BE7043AD9D3013A11F8013B00F83C
:1003C000013BF9D20B7803704B7843708B788370C4
:1003D00060467047000000000000000000000000C0
:1003E000000000000000000000000000000000000D
:1003F00000000000000000000000000000000000FD
:1004000090F800F06DE9024520F007016FF0000C54
:1004100010F0070491F820F040F049804FF00004FC
:100420006FF00700D1E9002391F840F000F10800D7
:1004300082FA4CF2A4FA8CF283FA4CF3A2FA8CF30F
:100440004BBBD1E9022382FA4CF200F10800A4FA76
:100450008CF283FA4CF3A2FA8CF3E3B9D1E90423CA
:1004600082FA4CF200F10800A4FA8CF283FA4CF301
:10047000A2FA8CF37BB9D1E9062301F1200182FABB
:100480004CF200F10800A4FA8CF283FA4CF3A2FAC1
:100490008CF3002BC6D0002A04BF04301A4612BACF
:1004A000B2FA82F2FDE8024500EBD2007047D1E9D2
:1004B000002304F00305C4F100004FEAC50514F061
:1004C000040F91F840F00CFA05F562EA05021CBF32
:1004D00063EA050362464FF00004A9E781F000419A
:1004E00002E000BF83F0004330B54FEA41044FEA19
:1004F000430594EA050F08BF90EA020F1FBF54EAB4
:10050000000C55EA020C7FEA645C7FEA655C00F04F
:10051000E2804FEA5454D4EB5555B8BF6D420CDD20
:100520002C4480EA020281EA030382EA000083EAA3
:10053000010180EA020281EA0303362D88BF30BD43
:1005400011F0004F4FEA01314FF4801C4CEA113199
:1005500002D0404261EB410113F0004F4FEA0333F8
:100560004CEA133302D0524263EB430394EA050F83
:1005700000F0A780A4F10104D5F1200E0DDB02FAF2
:100580000EFC22FA05F2801841F1000103FA0EF286
:10059000801843FA05F359410EE0A5F120050EF14C
:1005A000200E012A03FA0EFC28BF4CF0020C43FA7D
:1005B00005F3C01851EBE37101F0004507D54FF08A
:1005C000000EDCF1000C7EEB00006EEB0101B1F5DA
:1005D000801F1BD3B1F5001F0CD349085FEA300020
:1005E0004FEA3C0C04F101044FEA445212F5800F2B
:1005F00080F09A80BCF1004F08BF5FEA500C50F1C8
:10060000000041EB045141EA050130BD5FEA4C0CAA
:10061000404141EB0101013C28BFB1F5801FE9D207
:1006200091F0000F04BF01460020B1FA81F308BF2A
:100630002033A3F10B03B3F120020CDA0C3208DDF6
:1006400002F1140CC2F10C0201FA0CF021FA02F1D1
:100650000CE002F11402D8BFC2F1200C01FA02F141
:1006600020FA0CFCDCBF41EA0C019040E41AA2BF66
:1006700001EB0451294330BD6FEA04041F3C1CDA2E
:100680000C340EDC04F11404C4F1200220FA04F04E
:1006900001FA02F340EA030021FA04F345EA0301F8
:1006A00030BDC4F10C04C4F1200220FA02F001FABA
:1006B00004F340EA0300294630BD21FA04F029463C
:1006C00030BD94F0000F83F4801306BF81F48011D5
:1006D0000134013D4EE77FEA645C18BF7FEA655C48
:1006E00029D094EA050F08BF90EA020F05D054EA1A
:1006F000000C04BF1946104630BD91EA030F1EBF1F
:100700000021002030BD5FEA545C05D14000494122
:1007100028BF41F0004130BD14F580043CBF01F515
:10072000801130BD01F0004545F0FE4141F47001FB
:100730004FF0000030BD7FEA645C1ABF19461046D6
:100740007FEA655C1CBF0B46024650EA013406BFD7
:1007500052EA033591EA030F41F4002130BD00BF96
:1007600090F0000F04BF0021704730B54FF4806453
:1007700004F132044FF000054FF0000150E700BFD4
:1007800090F0000F04BF0021704730B54FF4806433
:1007900004F1320410F0004548BF40424FF0000120
:1007A0003EE700BF42004FEAE2014FEA31014FEA63
:1007B00002701FBF12F07F4393F07F4F81F06051B2
:1007C000704732F07F4208BF704793F07F4F04BFFD
:1007D00041F40021704730B54FF4607401F00045DA
:1007E00021F000411CE700BF50EA010208BF70473A
:1007F00030B54FF000050AE050EA010208BF70472B
:1008000030B511F0004502D5404261EB41014FF493
:10081000806404F132045FEA915C3FF4D8AE4FF09B
:1008200003025FEADC0C18BF03325FEADC0C18BF7E
:10083000033202EBDC02C2F1200300FA03FC20FACF
:1008400002F001FA03FE40EA0E0021FA02F114441C
:10085000BDE600BF70B54FF0FF0C4CF4E06C1CEA35
:1008600011541DBF1CEA135594EA0C0F95EA0C0FA6
:1008700000F0DEF82C4481EA030621EA4C5123EA19
:100880004C5350EA013518BF52EA033541F4801148
:1008900043F4801338D0A0FB02CE4FF00005E1FBFB
:1008A00002E506F00042E0FB03E54FF00006E1FB45
:1008B00003569CF0000F18BF4EF0010EA4F1FF0488
:1008C000B6F5007F64F5407404D25FEA4E0E6D41C8
:1008D00046EB060642EAC62141EA55514FEAC520D9
:1008E00040EA5E504FEACE2EB4F1FD0C88BFBCF555
:1008F000E06F1ED8BEF1004F08BF5FEA500E50F106
:10090000000041EB045170BD06F0004646EA0101CB
:1009100040EA020081EA0301B4EB5C04C2BFD4EBFD
:100920000C0541EA045170BD41F480114FF0000EF6
:10093000013C00F3AB8014F1360FDEBF002001F064
:10094000004170BDC4F10004203C35DA0C341BDCDE
:1009500004F11404C4F1200500FA05F320FA04F0B0
:1009600001FA05F240EA020001F0004221F00041E4
:1009700010EBD37021FA04F642EB06015EEA430E57
:1009800008BF20EAD37070BDC4F10C04C4F1200587
:1009900000FA04F320FA05F001FA04F240EA02003A
:1009A00001F0004110EBD37041F100015EEA430E0B
:1009B00008BF20EAD37070BDC4F1200500FA05F22B
:1009C0004EEA020E20FA04F301FA05F243EA0203AA
:1009D00021FA04F001F0004121FA04F220EA0200B9
:1009E00000EBD3705EEA430E08BF20EAD37070BDFF
:1009F00094F0000F0FD101F00046400041EB0101DF
:100A000011F4801F08BF013CF7D041EA060195F0C0
:100A1000000F18BF704703F00046520043EB03037A
:100A200013F4801F08BF013DF7D043EA0603704767
:100A300094EA0C0F0CEA135518BF95EA0C0F0CD072
:100A400050EA410618BF52EA4306D1D181EA0301B8
:100A500001F000414FF0000070BD50EA410606BFB2
:100A60001046194652EA430619D094EA0C0F02D1F7
:100A700050EA013613D195EA0C0F05D152EA03363C
:100A80001CBF104619460AD181EA030101F000415A
:100A900041F0FE4141F470014FF0000070BD41F0A3
:100AA000FE4141F4780170BD70B54FF0FF0C4CF47D
:100AB000E06C1CEA11541DBF1CEA135594EA0C0F9C
:100AC00095EA0C0F00F0A7F8A4EB050481EA030EE9
:100AD00052EA03354FEA013100F088804FEA0333D0
:100AE0004FF0805545EA131343EA12634FEA02229E
:100AF00045EA111545EA10654FEA00260EF000415F
:100B00009D4208BF964244F1FD0404F5407402D2B0
:100B10005B084FEA3202B61A65EB03055B084FEA41
:100B200032024FF480104FF4002CB6EB020E75EB3E
:100B3000030E22BFB61A754640EA0C005B084FEA66
:100B40003202B6EB020E75EB030E22BFB61A7546E3
:100B500040EA5C005B084FEA3202B6EB020E75EB2E
:100B6000030E22BFB61A754640EA9C005B084FEAA6
:100B70003202B6EB020E75EB030E22BFB61A7546B3
:100B800040EADC0055EA060E18D04FEA051545EAA2
:100B900016754FEA06164FEAC30343EA52734FEA4B
:100BA000C2025FEA1C1CC0D111F4801F0BD141EAC4
:100BB00000014FF000004FF0004CB6E711F4801F29
:100BC00004BF01430020B4F1FD0C88BFBCF5E06F09
:100BD0003FF6AFAEB5EB030C04BFB6EB020C5FEA19
:100BE000500C50F1000041EB045170BD0EF0004E6E
:100BF0004EEA113114EB5C04C2BFD4EB0C0541EAA0
:100C0000045170BD41F480114FF0000E013C90E69C
:100C100045EA060E8DE60CEA135594EA0C0F08BF60
:100C200095EA0C0F3FF43BAF94EA0C0F0AD150EA5F
:100C300001347FF434AF95EA0C0F7FF425AF1046F2
:100C400019462CE795EA0C0F06D152EA03353FF41A
:100C5000FDAE1046194622E750EA410618BF52EA97
:100C600043067FF4C5AE50EA41047FF40DAF52EA6B
:100C700043057FF4EBAE12E74FF0FF3C06E000BF08
:100C80004FF0010C02E000BF4FF0010C4DF804CD15
:100C90004FEA410C7FEA6C5C4FEA430C18BF7FEAD5
:100CA0006C5C1BD001B050EA410C0CBF52EA430C03
:100CB00091EA030F02BF90EA020F0020704710F183
:100CC000000F91EA030F58BF994208BF90422CBF12
:100CD000D8176FEAE37040F0010070474FEA410C0B
:100CE0007FEA6C5C02D150EA013C07D14FEA430C29
:100CF0007FEA6C5CD6D152EA033CD3D05DF8040B9A
:100D0000704700BF8446104662468C4619466346CB
:100D100000E000BF01B5FFF7B7FF002848BF10F1A2
:100D2000000F01BD4DF808EDFFF7F4FF0CBF0120E7
:100D300000205DF808FB00BF4DF808EDFFF7EAFF63
:100D400034BF012000205DF808FB00BF4DF808ED1E
:100D5000FFF7E0FF94BF012000205DF808FB00BF13
:100D60004DF808EDFFF7CEFF94BF012000205DF89D
:100D700008FB00BF4DF808EDFFF7C4FF34BF0120AA
:100D800000205DF808FB00BF4FEA410C7FEA6C5C75
:100D900002D150EA013C0AD14FEA430C7FEA6C5C75
:100DA00002D152EA033C02D14FF0000070474FF0ED
:100DB000010070474FEA410212F5001215D211D519
:100DC0006FF47873B3EB625212D94FEAC12343F048
:100DD000004343EA505311F0004F23FA02F018BFCA
:100DE000404270474FF00000704750EA013005D193
:100DF00011F0004008BF6FF0004070474FF0000056
:100E0000704700BF53B94AB9002908BF00281CBF6A
:100E10004FF0FF314FF0FF3000F06EB9ADF1080C2C
:100E20006DE904CE00F006F8DDF804E0DDE9022308
:100E300004B070472DE9F047089D04468C46002B0E
:100E400040F083808A42174647D9B2FA82F242B113
:100E5000C2F1200024FA00F09140974040EA010CD2
:100E600094404FEA1748230CBCFBF8F61FFA87FEA4
:100E700008FB16C143EA014306FB0EF1994209D96A
:100E8000FB1806F1FF3080F01981994240F216817B
:100E9000023E3B445B1AA4B2B3FBF8F008FB1033EC
:100EA00044EA034400FB0EFEA64509D93C1900F1B3
:100EB000FF3380F00581A64540F2028102383C44B0
:100EC00040EA0640A4EB0E0400261DB1D4400023E6
:100ED000C5E900433146BDE8F08702B9FFDEB2FA4A
:100EE00082F2002A50D1CB1B4FEA174E1FFA87F827
:100EF0000126B3FBFEFC210C0EFB1C3341EA03412F
:100F000008FB0CF38B4207D979180CF1FF3002D2A1
:100F10008B4200F2E9808446C91AA3B2B1FBFEF00D
:100F20000EFB101143EA014408FB00F8A04507D965
:100F30003C1900F1FF3302D2A04500F2D9801846D7
:100F4000A4EB080440EA0C40BFE78B4209D9002D0E
:100F500000F0B1800026C5E9000130463146BDE809
:100F6000F087B3FA83F6002E4AD18B4202D3824235
:100F700000F2B880841A61EB030101208C46002D39
:100F8000A8D0C5E9004CA5E7C2F1200320FA03F67A
:100F9000974001FA02F04FEA174ED9403043030C54
:100FA000B1FBFEF61FFA87F80EFB161143EA014368
:100FB00006FB08F1994204FA02F409D9FB1806F17C
:100FC000FF3C80F08D80994240F28A80023E3B4493
:100FD0005B1A81B2B3FBFEF00EFB103341EA034112
:100FE00000FB08F38B4207D9791800F1FF3C73D25C
:100FF0008B4271D902383944CB1A40EA064678E769
:10100000C6F1200C03FA06F422FA0CF31C4320FA72
:101010000CF701FA06F34FEA144E21FA0CF11F43C4
:101020003B0CB1FBFEF91FFA84F80EFB191143EAE1
:10103000014109FB08FA8A4502FA06F200FA06F3B2
:1010400008D9611809F1FF3048D28A4546D9A9F17B
:1010500002092144A1EB0A01BFB2B1FBFEF00EFB75
:10106000101147EA014700FB08F8B84507D9E7190E
:1010700000F1FF312ED2B8452CD90238274440EA7E
:101080000940A7EB0807A0FB02894F45C646494621
:101090001AD317D05DB1B3EB0E0267EB010707FA65
:1010A0000CFCF2404CEA0202F740C5E9002700269A
:1010B0003146BDE8F0872E4628460BE70646E9E6AE
:1010C0001846FDE64345E5D2B8EB020E69EB040194
:1010D0000138DFE70846D2E760468DE78146B9E789
:1010E000664675E730464AE7ACF1020C394413E72F
:1010F00002383C4424E700BF704700BF70B58AB097
:10110000002405940694079408940994204B5A6986
:1011100042F400225A615A6902F400220192019AB3
:101120005A6942F480025A615A6902F480020292BA
:10113000029A5A6942F400325A615A6902F4003242
:101140000392039A5A6942F480225A615B6903F45C
:1011500080230493049B0F4D22464FF400512846F0
:1011600000F074FA4FF4005605960B4B0693079463
:1011700005A90A4800F0A6F90596012306930794ED
:10118000089405A9284600F09DF90AB070BD00BF7B
:101190000010024000040048000021100008004830
:1011A00030B591B000240794089409940C940194EC
:1011B00002940394049405940225069501230A934E
:1011C00010230B930D950E944FF460130F9306A804
:1011D00000F042FA0F230193029503944FF48063C9
:1011E00004930594294601A800F088FD11B030BD94
:1011F00038B500F0D3F8FFF7D3FFFFF77FFF00F01B
:1012000057F864240B4D01224FF40051284600F09A
:101210001DFA204600F0E6F800224FF4005128465F
:1012200000F014FA642000F0DDF86434024801F0A4
:1012300013F9E7E7000400488883000870470000BE
:1012400000B583B00C4B9A6942F001029A619A6929
:1012500002F001020092009ADA6942F08052DA61EB
:10126000DB6903F080530193019B072000F0CEF867
:1012700003B05DF804FB00BF001002407047FEE7BA
:10128000FEE7FEE7FEE770477047704708B500F0DD
:1012900097F808BD054BD3F8882042F47002C3F8D4
:1012A00088204FF000629A60704700BF00ED00E0B8
:1012B00008B50B480B4B03604FF416434360002303
:1012C0008360C36003610C2242618361C361036276
:1012D000436200F0F1FF00B908BDFFF7AFFFFBE785
:1012E0000C0A00200044004000B589B0002303939D
:1012F00004930593069307930268144B9A4202D015
:1013000009B05DF804FB03F5E633DA6942F4003214
:10131000DA61DA6902F400320192019A5A6942F400
:1013200000325A615B6903F400330293029B0C2381
:101330000393022304930023059306930723079343
:1013400003A94FF0904000F0BDF8D9E700440040F9
:1013500010B504460E4B18784FF47A73B3FBF0F3D4
:101360000C4A1068B0FBF3F000F096F868B90F2C47
:1013700001D901200AE0002221464FF0FF3000F0A1
:1013800057F8054B1C60002000E0012010BD00BF95
:1013900004000020000000200800002008B5074AD3
:1013A000136843F010031360032000F02FF80020AF
:1013B000FFF7CEFFFFF744FF002008BD00200240EA
:1013C000034A1168034B1B780B441360704700BF3E
:1013D0008C0A002004000020014B1868704700BFF1
:1013E0008C0A002038B50446FFF7F6FF0546B4F135
:1013F000FF3F02D0044B1B781C44FFF7EDFF401B5E
:10140000A042FAD338BD00BF04000020074AD368C9
:1014100023F4E0631B041B0C000200F4E0600343B0
:1014200043F0BF6343F40033D360704700ED00E046
:1014300030B4174BDB68C3F30223C3F10704042C59
:1014400028BF04241D1D062D18D9033B4FF0FF357E
:1014500005FA04F421EA0401994005FA03F322EAAB
:101460000303194300280BDB0901C9B200F16040F6
:1014700000F5614080F8001330BC70470023E5E7B9
:1014800000F00F000901C9B2024B1954F4E700BF84
:1014900000ED00E014ED00E00138B0F1807F0AD2E9
:1014A000064B5860064AF02182F82310002098600D
:1014B00007221A6070470120704700BF10E000E06B
:1014C00000ED00E0F0B583B0002336E0032400E037
:1014D0000024B4403C430235584E46F82540584C51
:1014E0002568D44325EA02064F6817F4803F01D0EF
:1014F00042EA0506524D2E606D6804EA05064F6803
:1015000017F4003F01D042EA05064D4D6E60AD680C
:1015100004EA05064F6817F4801F01D042EA050669
:10152000474DAE60ED682C404E6816F4001F01D0A8
:1015300042EA0504424AD46001330A6832FA03F4ED
:101540007AD001249C402240F6D04D686E1E012EB8
:1015500003D9112D01D0122D12D186685F00032509
:10156000BD4026EA0506CD68BD4035438560466826
:1015700026EA04064D68C5F300149C4034434460D9
:10158000C7685E000325B540EC4327EA05078D6870
:10159000B5403D43C5604D68022D01D0122D13D1D9
:1015A000DF08083750F827E003F007054FEA850CFD
:1015B0000F2505FA0CF52EEA050E0D6905FA0CF556
:1015C00045EA0E0540F82750056825404C6804F0B0
:1015D0000304B4402C4304604C6814F0805FABD02B
:1015E000184CA56945F00105A561A46904F0010442
:1015F0000194019C9D08AE1C104C54F8267003F019
:101600000304A6000F24B44027EA0407B0F1904F6A
:101610003FF45EAF0C4CA0420AD004F58064A042B7
:1016200008D004F58064A0423FF450AF052450E791
:1016300001244EE702244CE703B0F0BD0000014056
:101640000004014000100240000400480AB181611A
:101650007047816270470000002800F0018370B578
:1016600082B00446036813F0010F3BD0B54B5B68B2
:1016700003F00C03042B1ED0B24B5B6803F00C0389
:10168000082B13D06368B3F5803F68D0002B40F07F
:10169000928003F1804303F504331A6822F4803208
:1016A0001A601A6822F480221A605DE0A54B5B681C
:1016B00013F4803FE6D04FF4003393FAA3F3A14B29
:1016C00019684FF4003393FAA3F3B3FA83F303F0EA
:1016D0001F03012202FA03F30B4203D06368002BBD
:1016E00000F0C082236813F0020F00F0C580954B14
:1016F0005B6813F00C0F00F09C80924B5B6803F06A
:101700000C03082B00F08F802369002B00F0F2807F
:10171000012292FAA2F3B3FA83F303F1845303F59F
:1017200084139B001A60FFF757FE0546022393FAC5
:10173000A3F3844B1968022393FAA3F3B3FA83F358
:1017400003F01F03012202FA03F30B4240F0C380AF
:10175000FFF742FE401B0228E8D903208BE2794ABA
:10176000136843F480331360764AD36A23F00F037F
:10177000A1680B43D3626368002B36D0FFF72CFEC1
:1017800005464FF4003393FAA3F36E4B19684FF4F8
:10179000003393FAA3F3B3FA83F303F01F03012298
:1017A00002FA03F30B429DD1FFF716FE401B64289B
:1017B000E7D903205FE2B3F5A02F09D0614B1A6887
:1017C00022F480321A601A6822F480221A60CBE771
:1017D00003F18043A3F53C331A6842F480221A6077
:1017E0001A6842F480321A60BEE7FFF7F5FD05463D
:1017F0004FF4003393FAA3F3524B19684FF40033BC
:1018000093FAA3F3B3FA83F303F01F03012202FA5E
:1018100003F30B423FF466AFFFF7DEFD401B642885
:10182000E6D9032027E2474B5B6813F4803F7FF43F
:101830006BAF022393FAA3F3424B1968022393FA86
:10184000A3F3B3FA83F303F01F03012202FA03F3B5
:101850000B4203D02369934240F006823948036863
:1018600023F0F8036169F82292FAA2F2B2FA82F246
:1018700001FA02F213430360236813F0080F00F02B
:101880008D80A369002B61D0012191FAA1F2B2FAF7
:1018900082F22D4B13449B001960FFF79DFD054616
:1018A000022393FAA3F293FAA3F293FAA3F2254A3E
:1018B000516A93FAA3F3B3FA83F303F01F030122EF
:1018C00002FA03F30B4269D1FFF786FD401B0228A1
:1018D000E6D90320CFE11B48036823F0F8036169D0
:1018E000F82292FAA2F2B2FA82F201FA02F2134359
:1018F0000360C1E7012393FAA3F3B3FA83F303F17F
:10190000845303F584139B0000221A60FFF764FDE3
:101910000546022393FAA3F30A4B1968022393FAAC
:10192000A3F3B3FA83F303F01F03012202FA03F3D4
:101930000B42A1D0FFF750FD401B0228E9D903203C
:1019400099E100BF0010024020819010012292FA1C
:10195000A2F2B2FA82F2B74B13449B0000221A6043
:10196000FFF73AFD0546022393FAA3F293FAA3F296
:1019700093FAA3F2B04A516A93FAA3F3B3FA83F34A
:1019800003F01F03012202FA03F30B4206D0FFF714
:1019900023FD401B0228E6D903206CE1236813F0E5
:1019A000040F00F0A980A44BDB6913F0805F0BD11A
:1019B000A14BDA6942F08052DA61DB6903F08053AF
:1019C0000193019B012500E000259C4B1B6813F44B
:1019D000807F10D0E368012B21D063BB03F18043EB
:1019E00003F504331A6A22F001021A621A6A22F01D
:1019F00004021A6218E0914A136843F4807313607A
:101A0000FFF7EAFC06468D4B1B6813F4807FE1D19B
:101A1000FFF7E2FC801B6428F5D903202BE1864AFE
:101A2000136A43F001031362E368002B3CD0FFF715
:101A3000D3FC06462EE0052B09D07F4B1A6A22F014
:101A400001021A621A6A22F004021A62ECE77A4B67
:101A50001A6A42F004021A621A6A42F001021A6219
:101A6000E2E7022393FAA3F3734B596A022393FA32
:101A7000A3F3B3FA83F303F01F03012202FA03F383
:101A8000194238D1FFF7A8FC801B41F288339842F5
:101A900000F2EC80022393FAA3F293FAA3F3002B53
:101AA000DFD0654B196AE1E7FFF796FC064618E0C0
:101AB000022393FAA3F3604B596A022393FAA3F328
:101AC000B3FA83F303F01F03012202FA03F319426E
:101AD00011D0FFF781FC801B41F28833984200F25D
:101AE000C780022393FAA3F293FAA3F3002BDFD06B
:101AF000514B196AE1E7B5BBE369002B00F0BA80EE
:101B00004D4A526802F00C02082A00F09980022B1C
:101B10002FD04FF0807393FAA3F3B3FA83F303F15A
:101B2000845303F584139B0000221A60FFF754FCD2
:101B300004464FF0007393FAA3F33F4B19684FF03C
:101B4000007393FAA3F3B3FA83F303F01F030122A4
:101B500002FA03F319426BD0FFF73EFC001B022888
:101B6000E7D9032087E0344AD36923F08053D36157
:101B7000C2E74FF0807393FAA3F3B3FA83F303F150
:101B8000845303F584139B0000221A60FFF724FCA2
:101B900005464FF0007393FAA3F3274B19684FF0F3
:101BA000007393FAA3F3B3FA83F303F01F03012244
:101BB00002FA03F3194206D0FFF70EFC401B02287D
:101BC000E7D9032057E01C494B6823F47413626A79
:101BD000206A024313434B604FF0807393FAA3F3E0
:101BE000B3FA83F303F1845303F584139B000122BA
:101BF0001A60FFF7F1FB04464FF0007393FAA3F36A
:101C00000D4B19684FF0007393FAA3F3B3FA83F303
:101C100003F01F03012202FA03F3194206D1FFF772
:101C2000DBFB001B0228E7D9032024E0002022E090
:101C3000002020E020819010001002400070004041
:101C4000012B1AD0104B5B6803F48031226A914259
:101C500015D103F47013626A934212D100200AE096
:101C600001207047012006E0012004E0032002E08B
:101C7000032000E0002002B070BD0120FBE701203E
:101C8000F9E70120F7E700BF00100240164B5B6840
:101C900003F00C02082A01D01448704703F47011B5
:101CA0004FF4701292FAA2F2B2FA82F221FA02F220
:101CB0000F49885C0C4AD26A02F00F020F2191FA98
:101CC000A1F1B1FA81F1CA400A498A5C13F4803F5C
:101CD00005D0064BB3FBF2F300FB03F07047064B55
:101CE00003FB00F0704700BF0010024000127A00B2
:101CF000B0830008C083000800093D00002800F000
:101D0000BE8070B50D460446614B1B6803F00703A7
:101D10008B420BD25E4A136823F007030B43136018
:101D2000136803F007038B4240F0AB80236813F085
:101D3000020F06D0574A536823F0F003A1680B4303
:101D40005360236813F0010F5AD06368012B2DD024
:101D5000022B40D0022292FAA2F24E4A10680222CE
:101D600092FAA2F2B2FA82F202F01F02012101FA03
:101D700002F2104200F0878046494A6822F00302CE
:101D800013434B60FFF728FB0646424B5B6803F0AA
:101D90000C036268B3EB820F32D0FFF71DFB801B90
:101DA00041F288339842F0D9032067E04FF40032C3
:101DB00092FAA2F2374A10684FF4003292FAA2F275
:101DC000B2FA82F202F01F02012101FA02F202428B
:101DD000D2D1012052E04FF0007292FAA2F22D4AC5
:101DE00010684FF0007292FAA2F2B2FA82F202F098
:101DF0001F02012101FA02F21042BDD101203DE093
:101E0000234B1B6803F00703AB420AD9204A13682F
:101E100023F007032B431360136803F00703AB425F
:101E200033D1236813F0040F06D01A4A536823F401
:101E3000E063E1680B435360236813F0080F07D099
:101E4000144A536823F46053216943EAC103536081
:101E5000FFF71CFF0F4B5B6803F0F003F02292FAD0
:101E6000A2F2B2FA82F2D3400B4AD35CD8400B4BB9
:101E700018600B4B1868FFF76BFA002070BD01204B
:101E800070470120FAE70120F8E70120F6E700BFDC
:101E9000002002400010024098830008000000204B
:101EA00008000020014B1868704700BF00000020A8
:101EB00008B5FFF7F7FF074B5B6803F4E0634FF4E7
:101EC000E06292FAA2F2B2FA82F2D340024AD35C02
:101ED000D84008BD00100240A883000808B5FFF7ED
:101EE000E1FF074B5B6803F460534FF4605292FAD2
:101EF000A2F2B2FA82F2D340024AD35CD84008BDC3
:101F000000100240A883000838B5044683680269BF
:101F1000134342691343C2691343016808686C4A5A
:101F2000024013430B602268536823F44053E16876
:101F30000B435360A269236A1A4321688B6823F418
:101F4000306313438B602368624A934215D0624A20
:101F5000934228D002F58062934220D01025E36995
:101F6000B3F5004F21D0082D00F2A680DFE805F080
:101F70006B7C86A491A4A4A49B00584B1B6B03F01C
:101F80000303032B09D8DFE803F00204060C002545
:101F9000E5E70425E3E70825E1E71025DFE700256D
:101FA000DDE70225DBE70025D9E7082D48D8DFE883
:101FB00005F0051D2847334747473E00FFF778FFE8
:101FC0006268530803EB4003B3FBF2F39BB2A3F147
:101FD00010014FF6EF72914271D89AB222F00F02BF
:101FE000C3F3420313432268D3606BE0FFF776FF2D
:101FF0006268530803EB4003B3FBF2F39BB2002586
:10200000E5E76268530803F5740303F51053B3FB67
:10201000F2F39BB20025DAE7FFF738FE6268530857
:1020200003EB4003B3FBF2F39BB20025CFE76268FA
:10203000530803F58033B3FBF2F39BB20025C6E7E8
:1020400001250023C3E7FFF733FF626800EB52036B
:10205000B3FBF2F39BB2A3F110014FF6EF72914282
:102060002FD82268D3602DE0FFF738FF626800EBBD
:102070005203B3FBF2F39BB20025ECE7626853080E
:1020800003F5F40303F59053B3FBF2F39BB2002581
:10209000E1E7FFF7FBFD626800EB5203B3FBF2F3ED
:1020A0009BB20025D7E76268530803F50043B3FBF2
:1020B000F2F39BB20025CEE701250023CBE70125F3
:1020C00000E00125002323666366284638BD00BF73
:1020D000F369FFEF00380140004400400010024067
:1020E000436A13F0010F06D00268536823F40033EB
:1020F000816A0B435360436A13F0020F06D00268F3
:10210000536823F48033C16A0B435360436A13F06E
:10211000040F06D00268536823F48023016B0B433D
:102120005360436A13F0080F06D00268536823F423
:102130000043416B0B435360436A13F0100F06D00A
:102140000268936823F48053816B0B439360436A66
:1021500013F0200F06D00268936823F40053C16B7C
:102160000B439360436A13F0400F0AD00268536830
:1021700023F48013016C0B435360036CB3F5801F91
:102180000BD0436A13F0800F06D00268536823F423
:102190000023816C0B43536070470268536823F43B
:1021A000C003416C0B435360EBE72DE9F843054650
:1021B0000F4616469946DDF820802C68E46937EA18
:1021C00004030CBF01240024B4423CD1B8F1FF3F0A
:1021D000F3D0FFF701F9A0EB0900404521D8B8F191
:1021E000000F1ED02B681A6812F0040FE5D0DA69D0
:1021F00012F4006FE1D04FF400621A622A6813688B
:1022000023F4D07313602A68936823F0010393606A
:1022100020236B67AB67EB67002385F870300320E2
:1022200012E02A68136823F4D07313602A68936855
:1022300023F00103936020236B67AB67002385F8CD
:102240007030032000E00020BDE8F88330B583B093
:1022500004460023C367FFF7BFF8054623681B68E1
:1022600013F0080F0CD123681B6813F0040F15D16D
:1022700020236367A367002084F8700003B030BD9B
:102280006FF07E430093034600224FF40011204676
:10229000FFF78BFF0028E6D00320EFE76FF07E43C7
:1022A00000932B4600224FF480012046FFF77DFF6C
:1022B0000028DDD00320E1E768B310B50446436F82
:1022C00003B3242363672268136823F001031360B8
:1022D0002046FFF719FE012813D0636ABBB92268B4
:1022E000536823F4904353602268936823F02A03D1
:1022F00093602268136843F0010313602046FFF7E0
:10230000A5FF10BD80F87030FEF7EEFFD9E720463C
:10231000FFF7E6FEE3E7012070470000DFF834D066
:10232000002103E00C4B5B58435004310B480C4B2D
:1023300042189A42F6D30B4A02E0002342F8043BCB
:10234000094B9A42F9D3FEF7A5FF00F011F8FEF70A
:102350004FFFFEE7004000209C870008000000209F
:10236000B8090020B8090020B80A0020FEE70000E4
:1023700070B50D4E0D4D761BB61006D0002455F8E5
:10238000043B01349847A642F9D1094E094D761B0A
:1023900005F0EEFFB61006D0002455F8043B0134DA
:1023A0009847A642F9D170BD908700089087000831
:1023B0009887000890870008F0B4860746D0541E1E
:1023C000002A3CD0CAB2034601E0013C37D303F8EF
:1023D000012B9D07F9D1032C2AD9CDB245EA052559
:1023E0000F2C45EA054534D9A4F1100222F00F0C58
:1023F00003F120071609674403F1100242E904556E
:1024000042E902551032BA42F8D1721C14F00C0F96
:1024100003EB021204F00F0613D0331F23F0030363
:102420000433134442F8045B9342FBD106F00304E7
:102430002CB1CAB21C4403F8012B9C42FBD1F0BC66
:10244000704734461346002CF3D1F8E71446034690
:10245000C1E71A462646E0E70FB400B5074983B046
:1024600004AB086853F8042B8168019300F008F866
:1024700003B05DF804EB04B0704700BF0C0000200F
:102480002DE9F04F2DED068BCFB01C468B4617463D
:10249000814603F087F90368089418461193FDF705
:1024A000AFFF1090B9F1000F04D0D9F83830002BED
:1024B00000F00A82DBF86430BBF90C2013F0010F46
:1024C00093B202D1910540F1D5869E040AD4DBF87F
:1024D000641042F4005321F40051ABF80C30CBF8F7
:1024E00064109BB21D0740F1CA80DBF81020002A5F
:1024F00000F0C58003F01A020A2A00F0CE80002303
:102500009FED837BCDE92333CDE91333CDE915333B
:102510000C931293049325AB229398463B788DED50
:102520000E7B09EE10BA002B00F078813C4604E0E7
:1025300014F8013F002B00F0C980252BF8D1E51BD2
:1025400040F0C7802378002B00F0688100230593BA
:102550008DF86B300293661C4FF0FF336478039361
:102560002B254FF0200A0136A4F120035A2B00F24C
:10257000D380DFE813F07802D100D1007202D100DD
:10258000D100D1006A00D100D10010022102D10097
:102590001B025802D10052025B005B005B005B0033
:1025A0005B005B005B005B005B00D100D100D100F1
:1025B000D100D100D100D1005D01D100B301900262
:1025C0005D015D015D01D100D100D100D1008A0221
:1025D000D100D100E902D100D100D100C101D10068
:1025E0002502D100D1002108D100D100D100D100B5
:1025F000D100D100D100D1005D01D100B301E701CC
:102600005D015D015D01FE02E701AD01D1008102C6
:10261000D1001B0317080703AD01D100C1018200DF
:102620001308D100D100F207D1008200A4F13003D9
:10263000002216F8014B02EB820203EB4202A4F1E6
:102640003003092BF5D905928EE7484603F0AAF826
:10265000436815931846FDF7D3FE034648461C46CB
:10266000169303F09FF88268139234B1139B23B141
:10267000139B1B78002B41F0D980347873E75946BF
:10268000484601F02FFD002841F07483BBF80C3060
:1026900003F01A020A2A7FF432AFBBF90E20002A97
:1026A000FFF62DAFDBF86420D20702D49E0541F17E
:1026B000918123463A465946484601F0D1FC0490A0
:1026C00004984FB0BDEC068BBDE8F08FE51B00F021
:1026D000A580DDE9233201332A44072BCDE92332DB
:1026E000C8F80070C8F8045006DC08F10808049A1D
:1026F00023782A44049226E719EE101A22AA4846A3
:1027000004F020F8002841F04D840DF19408EEE724
:1027100000000000000000000996002C7ED000237D
:102720001A464FF0010A8DF8D4408DF86B300792AD
:1027300003920A920D920B92CDF818A035AF029B2E
:10274000029913F0020318BF0AF1020A11F0840B78
:1027500005D10599A1EB0A06002E00F3D483249D30
:1027600072B1239A013201350DF16B000121072A64
:10277000CDE92325C8E9000100F3058408F1080824
:102780006BB1239B013302351BA90222072BCDE934
:102790002335C8E9001200F3068408F10808BBF1EC
:1027A000800F00F09682039B069A9E1A002E00F37B
:1027B000D882029BDE0500F13082239B069AC8F87E
:1027C000007001331544072B2495C8F80420239387
:1027D00000F32D8308F10808029B5C0705D5059BD3
:1027E000A3EB0A04002C00F3EC83DDE9043252452C
:1027F000ACBF9B1853440493002D40F0EF8200239C
:102800002393079B1BB10799484602F0A3FE0DF1E5
:102810009408099F3B78002B7FF488AE249B19EE27
:1028200010BA002B40F0F8870023239300F08FBCF0
:10283000089B0996073323F00703B3EC027B8DED69
:102840000E7BDDE90E56089326F000430AEE903A1F
:102850000AEE105A5BEC1AABB84B504659464FF093
:10286000FF32FEF791FA002840F05285B34B4FF04B
:10287000FF3250465946FEF769FA002840F0488575
:102880000022002328463146FEF756FA002841F080
:102890009A819DF86B20AA4FAA4B029800214FF015
:1028A000030A20F0800007910290472CC8BF1F4602
:1028B000CDF818A003910A910D910B91002A3FF4D5
:1028C0003EAF0AF1010A3AE7484602F0A7FDF1E5FA
:1028D000029B347843F02003029344E6089B099658
:1028E00053F8042B8DF8D42000210A464FF0010A3A
:1028F00008938DF86B101AE7089D099655F8047B2C
:1029000000268DF86B60002F00F08486039A134632
:10291000013300F02E8731463846FDF771FC0790F1
:10292000002801F0E281079B0396DA1B06923346EA
:1029300022EAE27A08959DF86B2007930A930D939B
:102940000B93BBE7029B09969D0640F1AD80089B67
:10295000073323F007031946F1E802230891924652
:102960009B46002A73F10003C0F2AF80039B013342
:1029700000F0AD85029B23F080055AEA0B0340F07E
:10298000B182039B002B40F0B48202950023039395
:1029900006934EAFC3E0089B53F8042B0592002A20
:1029A00080F27184059A089352420592029B347812
:1029B00043F004030293D6E534788DF86B50D2E5EA
:1029C000029B099643F01005AF0640F12984089B4D
:1029D000073323F00703F3E802AB08930123002237
:1029E0008DF86B20039A114601317DD025F08001CE
:1029F00002915AEA0B0140F07182002A40F086866B
:102A0000002BC3D115F00103069300F06B84302333
:102A10008DF837310DF2371781E0029B347843F09F
:102A2000800302939FE5324612F8014B2A2C01F0F5
:102A3000F182A4F13003092B164698BF002201F25F
:102A4000928116F8014B02EB820203EB4202A4F1E1
:102A50003003092BF5D9039286E5029B347843F0C5
:102A6000010302937FE59DF86B30002B7FF405AEE8
:102A700034788DF86BA076E53478029B6C2C00F0EE
:102A8000C28543F0100302936DE5029B347843F056
:102A90000803029367E5029B099643F01003029333
:102AA000029B9D063FF553AF029BD80640F1F6848A
:102AB000089B53F8042B08934FEAE27B5B46002AFD
:102AC00073F100039246BFF651AF039A029DDAF10B
:102AD000000A11464FF02D036BEB4B0B01318DF8C3
:102AE0006B304FF0010381D1012B00F0FB81022BF1
:102AF0004EAF73D112984FEA1A130AF00F0143EA4E
:102B00000B734FEA1B129A469346435C07F8013D4C
:102B10005AEA0B03EFD14EABDB1B02950693002361
:102B2000039907930A930D930B93069B9DF86B20D3
:102B30008B42B8BF0B469A46C0E600BFFFFFEF7F4F
:102B4000D4830008D8830008029B099643F0100341
:102B50000293029B990640F17783089B073323F089
:102B60000703F3E802AB0893029B23F4806500237C
:102B700035E73478029B682C00F03E8543F0400333
:102B80000293F0E4089B099647F6300153F8042BB2
:102B9000ADF86C1002990893CD4B129341F00205E9
:102BA00092464FF0000B0223782418E7029B099607
:102BB0009E0600F1A183029BDD0600F1AD85029B1C
:102BC0005C0600F14986029B980540F1A585089BAB
:102BD000049953F8042B089311701AE64FEADA02AD
:102BE00042EA4B724FEADB010AF007038B4692463A
:102BF00030335AEA0B013A4607F8013DEED1E907B6
:102C000089D5302B87D03023023A07F8013C4EABF0
:102C10009B1A02950693174681E7652C40F31381B2
:102C2000DDE90E0100220023FEF77CF8002800F009
:102C30000482239BA74AC8F80020013301350122F2
:102C4000072BCDE92335C8F8042000F3418508F1AE
:102C500008081C9B0C9A934280F20783239B119ACD
:102C6000C8F80020109AC8F8042001331544072B37
:102C70002495239300F3B28408F108080C9B5C1E92
:102C8000002C7FF7A9AD102C239BDFF84CB240F34A
:102C900030855F46102619EE10BA05E008F10808E5
:102CA000103C102C40F3248501331035072BCDE95F
:102CB0002335C8E90076F1DD22AA5946484603F0DB
:102CC00041FD002840F03E82DDE923350DF19408F6
:102CD000E6E7059BA3EB0A06002E7FF764AD102EF6
:102CE000239ADFF8F4B129DD58462946A34619EEA8
:102CF000105A1023044604E0103E102E08F1080874
:102D000018DD01321031072ACDE92321C8E900433B
:102D1000F2DD22AA2946484603F014FD002840F0BF
:102D20001082103E102EDDE923210DF194084FF0A2
:102D30001003E6DC23460D465C469B4601323544D3
:102D4000072ACDE92325C8F800B0C8F8046000F3CD
:102D50003784039B069A9E1A002E08F108087FF715
:102D600028AD102E239ADFF870B129DD5846294688
:102D7000A34619EE105A1023044604E0103E102E0C
:102D800008F1080818DD01321031072ACDE92321A6
:102D9000C8E90043F2DD22AA2946484603F0D2FCE6
:102DA000002840F0CE81103E102EDDE923210DF1E8
:102DB00094084FF01003E6DC23460D465C469B4624
:102DC00001323544072ACDE92325C8F800B0C8F8F8
:102DD000046000F3178208F10808EAE419EE101AFB
:102DE00022AA484603F0AEFC00283FF408AD19EED5
:102DF00010BAA7E1239B1199C8F800101099C8F8E0
:102E0000041001330D44072B2495239300F3D2853E
:102E100008F10808002AC0F2C7870C9A013315444C
:102E2000072BCDE92335C8E900727FF7D3AC19EE43
:102E3000101A22AA484603F085FC0028D7D1249D09
:102E40000DF19408C8E40C9B239C012B40F3928164
:102E5000013401350123072CCDE92345C8F8007062
:102E6000C8F8043000F3F18308F10808109B119AA8
:102E700001341D44072CCDE92345C8E9002300F3A4
:102E8000F28308F108080023DDE90E010022FDF7B6
:102E900049FF0C9B002840F08B81013B0134013736
:102EA0001D44072CCDE92345C8F80070C8F804304C
:102EB00000F3708108F10808149A013415441EAB20
:102EC000072CCDE92345C8E900327FF783ACAEE794
:102ED000E48300081484000828840008012B029D64
:102EE0007FF405AEBBF1000F08BFBAF10A0F80F006
:102EF000F6820AF1300A01238DF837A10295069374
:102F00000DF237170BE6102EDDE9232129DD17938B
:102F1000102543460846B846274619EE104A04E0F5
:102F2000103E102E03F1080316DD0132C4491030A3
:102F3000072ACDE92320C3E90015F1DD22AA2146A5
:102F4000484603F0FFFB002840F0B483103E102EEB
:102F5000DDE9232025ABE8DC3C4647469846179B35
:102F600001460132B648C8F800007518072ACDE9B5
:102F70002325C8F8046000F38B839DF86B2008F1CB
:102F80000808FFF7EDBB19EE101A22AA484617935E
:102F900003F0D8FB00287FF42AAF249D179B0DF186
:102FA0009408FFF7EDBB19EE101A22AA484603F069
:102FB000C9FB00287FF41BAF249D0DF19408FFF797
:102FC000EEBB102C239B20DD19EE107A102604E0B6
:102FD000103C102C08F1080817DD0133984A103511
:102FE000072BCDE92335C8E90026F1DD22AA3946B1
:102FF000484603F0A7FB002840F07883103C102CD3
:10300000DDE923350DF19408E7DC01338C4AC8F87B
:1030100000202544072BCDE92335C8F804407FF76D
:10302000E4AB19EE101A22AA484603F08BFB0028E5
:103030007FF4DDAE249DFFF7D8BB1C9A002A40F335
:103040002681DDE90B329342A8BF1346002B1C46B4
:103050000DDD239BC8F8007001332544072B249510
:10306000C8F80440239300F3D98508F108080B9BA6
:10307000002CA8BF1B1B002B1C4600F355830B9B89
:103080003B449B46029B590500F104851C9B0C9A0E
:10309000934203DB029AD20740F1CF83239A11991E
:1030A000C8F800101099C8F8041001320D44072A1E
:1030B0002495239200F3E98508F108080C9ABC18BE
:1030C000A4EB0B04D31A9C42A8BF1C46002C0DDDB8
:1030D000239AC8F800B001322544072A2495C8F87D
:1030E0000440239200F32E8608F10808002CACBFA0
:1030F0001C1B1C46002C7FF76FAB102C239BDFF8AA
:1031000044B140F3F6825F46102619EE10BA05E08E
:1031100008F10808103C102C40F3EA820133103506
:10312000072BCDE92335C8E90076F1DD22AA5946FF
:10313000484603F007FB28B9DDE923350DF1940873
:10314000E8E7AB46079911B1484602F003FADBF80D
:10315000643013F0010FBBF80C3002D1980540F138
:103160009082590600F1128604984FB0BDEC068B90
:10317000BDE8F08F029BDE073FF56AAE01340135F2
:103180000123072CCDE92345C8F80070C8F80430A6
:103190007FF790AE19EE101A22AA484603F0D2FA31
:1031A00000287FF424AEDDE923450DF1940883E681
:1031B0005E1E002E7FF780AE102EDFF888B040F341
:1031C000E382CDF80CA0102719EE10AA05E008F153
:1031D0000808103E102E40F3D58201341035072C1C
:1031E000CDE92345C8E900B7F1DD22AA514648469A
:1031F00003F0A8FA002840F0BA85DDE923450DF177
:103200009408E6E719EE101A22AA484603F09AFA43
:1032100000287FF4ECAD249D0DF19408FFF7C9BAA6
:10322000089AEE0652F8041B08924FF001035ED490
:10323000680659D51FFA81FA4FF0000BFFF7CFBB94
:103240001884000828840008029BDA0600F1368101
:10325000029B5B0640F1B082089B53F8042B089355
:103260001FFA82FA4FF0000B7EE4029BD8077FF52D
:10327000B3AAF3E4DBF8580002F09CFABBF90C2087
:1032800093B2FFF722B934780893FFF76CB9239B08
:10329000C649C8F80010013301350121072BCDE9DB
:1032A0002335C8F8041000F39B8408F10808002AAD
:1032B0007FF4A0AD029B0C9A03F0010313433FF48B
:1032C0008BAA239B119AC8F80020109AC8F80420F2
:1032D00001331544072B2495239300F36B8308F1E6
:1032E00008089AE54EAF1AE4AA0500F1AF828A46B3
:1032F0004FF0000BFFF773BB089B53F8041B0893B8
:10330000049BDD171A462B46C1E90023FFF781BA5B
:10331000DDE90E0102460B46FDF736FD05460028A5
:1033200040F03086612C00F0A485412C00F0A28290
:10333000039B24F020065A1C069600F0C085472EF9
:1033400000F09C85DDE90E01029A002942F48072AA
:103350000A924FF00003C0F2E58541EC180B179379
:103360000793462E00F0A084452E40F07184B0EE05
:10337000480AF0EE680A039B20A95D1C1DABCDE94D
:1033800000312A461CAB0221484600F0B1FF074637
:1033900005440A9BDDF808B0029351EC180B00229B
:1033A0000023FDF7BFFC002800F056832B46DB1BF3
:1033B0000C93069B472B00F02183069B462B00F0C5
:1033C000A1841C9B0B930B9B069A013B412A1C93E7
:1033D00000F0A285E2B20021002BB8BF0B9B8DF854
:1033E0007820BABFC3F101032D222B22092B8DF8BF
:1033F000792040F382850DF1870EDFF8B8C175465C
:103400008CFB0321DA17C2EBA10202EB8201A3EBD2
:1034100041011E463031632E284605F8011C134633
:1034200005F1FF35ECDC3033DAB2831E9E452946C8
:1034300005F8012C40F2F9850DF17A0301E011F84D
:10344000012B03F8012B8E45F9D10DF189030DF104
:103450007A021B1A13441EAA9B1A14930C9B149AEB
:10346000012B1A44069240F3AF85069B109A134431
:10347000069300232BF480660A930D930B93069B0F
:1034800046F48072029223EAE37A179B002B40F005
:10349000DC829DF86B200393FFF710BA029B59065C
:1034A00040F19981089B53F8042B08930FFA82FA94
:1034B0004FEAEA7B52465B46FFF753BA089B53F844
:1034C000042B089392464FF0000BFFF74DBBBBF166
:1034D000000F08BFBAF10A0F029DFFF40AAD05F410
:1034E000806600230295CDF81880139DA0464EAF4C
:1034F00034461E4609E0FDF785FCBBF1000F08BF0E
:10350000BAF10A0F1FD382468B460A220023504687
:103510005946FDF777FC94460CF1300C07F801CCC6
:10352000504659460A2200230136013F002CE2D0C2
:1035300095F800C06645DED1FF2EDCD09B4508BF64
:10354000924580F095824EABDB1B44461395DDF827
:1035500018800C960693FFF7E2BA154B0996129362
:10356000029B9F0666D5089B073323F00703F3E809
:1035700002AB0893029AD0070AD55AEA0B0307D088
:10358000302342F002028DF86D4002928DF86C30CB
:10359000029B23F480650223FFF721BA029D09965E
:1035A000FFF712BA0996FFF7D4BA00BF14840008D7
:1035B000E483000867666666AB4B09961293CFE713
:1035C00019EE101A22AA484603F0BCF800287FF42E
:1035D0000EAC249D0DF19408FFF7E5B819EE101A12
:1035E00022AA484603F0AEF800287FF400AC249DE0
:1035F0000DF19408FFF742BB43F400737478029313
:103600000136FEF7B0BF43F0200374780293013611
:10361000FEF7A9BF039B0A97062B28BF0623039733
:103620000D970B9707973A469A46904F0895069341
:10363000FFF744B9029BDE063ED5089B53F8042BE6
:10364000089392464FF0000B94E719EE101A22AA45
:10365000484603F077F800287FF4C9ABDDE923453D
:103660000DF1940802E419EE101A22AA484603F05C
:1036700069F800287FF4BBABDDE923450DF1940820
:1036800001E4DBF8580002F097F8BBF80C3068E56D
:1036900019EE101A22AA4846179303F053F800288F
:1036A0007FF4A5AB9DF86B20249D179B0DF194082A
:1036B000FFF756B8A34645E5029B5D066ED5089B0D
:1036C00053F8042B08931FFA82FA4FF0000B51E7CE
:1036D00019EE101A22AA484603F034F800287FF4A5
:1036E00086AB249D0DF19408FFF7B3BABB4629E5DC
:1036F000BB4601332544072BC8F800B0CDE923357C
:10370000C8F804407FF766A8FFF791BB012B029D24
:103710007FF4EDA9FFF7EDBB089B049953F8042B48
:1037200011600893FFF775B8102C239BDFF840B1A8
:1037300064DD2A4610265D4619EE10BA04E008F151
:103740000808103C102C57DD01331032072BCDE94F
:103750002332C8E90056F2DD22AA5946484602F053
:10376000F1FF00287FF4EEACDDE923320DF194087F
:10377000E7E73846FCF744FE3346039602460690D8
:10378000FFF7D6B8DDF80CA001343544072CCDE99D
:103790002345C8E900B67FF78DABFBE4029B13F429
:1037A000007F089B53F8042B089314BF5FFA82FA3A
:1037B00092464FF0000BDDE6029B13F4007F089B5E
:1037C00053F8042B089314BF5FFA82FA92464FF025
:1037D000000BFFF7C9B9029B13F4007F089B53F855
:1037E000042B3FF468A94FFA82FA4FEAEA7B089368
:1037F00052465B46FFF7B5B8AB4615460133254444
:10380000072BCDE92335C8F800B0C8F8044000F311
:10381000E78008F1080832E419EE101A484622AA97
:1038200002F090FF00283EF4FFAF90E4029B347852
:1038300043F480630293FEF796BE0C9ABC18A4EB87
:103840000B04D31A9C42A8BF1C464FE45FFA81FACE
:103850004FF0000BFFF7C3B8089B049953F8042BF3
:1038600008931180FEF7D5BFF88300080C84000888
:103870002884000830238DF86C3058238DF86D3083
:10388000029B43F00205039B632B00F3CC820023D1
:10389000079335AFDDE90E01029A029542F4817279
:1038A00024F0200600290A920696C0F2AC8100237B
:1038B00041EC180B1793612C00F00583412C7FF429
:1038C00050ADB0EE480AF0EE680A1CA802F03CFECB
:1038D00000224FF07F5351EC100BFCF7BBFF00228E
:1038E000002382468B46FDF71DFA08B101231C9385
:1038F000B74B0B93039B19973E4609EE909A0B9F8B
:1039000018945D1ECDF8348003E0FDF70BFA013DFD
:1039100008BBB04B002250465946FCF79BFF894636
:103920008046FDF747FA0446FCF72AFF02460B469D
:1039300040464946FCF7D6FD17F804C0B5F1FF3FF5
:10394000B046824606F801CB8B464FF000024FF09E
:103950000003A946D9D1A04BCDF8308000225046B3
:103960005946DDF83480199F0D944D46189C19EE88
:10397000909AFDF7FFF9002840F05F82964B504681
:1039800059460022FDF7CEF918B10D9BD90700F179
:103990005482002D2B4606DB01333344302206F8D7
:1039A000012BB342FBD1F31B0C930A9BDDF808B04B
:1039B0000293FEE419EE101A22AA484602F0C2FE53
:1039C00000287FF414AADDE923351C9A0DF1940830
:1039D000FFF720BADBF8580001F0EEFEFEF769BEF3
:1039E00019EE101A22AA484602F0ACFE00287FF415
:1039F000FEA9249D0DF19408FFF741BB1C9B0B937E
:103A0000DA1C02DB039A934204DD023C24F020031B
:103A10000693D8E4DDE90B318B42C0F289811BF0BB
:103A2000010F00F0BC82109A134406931BF4806FC0
:103A300003D00B9B002B00F37782069B672423EABD
:103A4000E37A00230A930D931FE52D2200238DF8BE
:103A50006B200393FEF735BF209BAB42BFF4A7ACAE
:103A600030215A1C20921970209B9D42F9D89EE467
:103A7000169B1599FF1A1A46384602F0F3FD6B782B
:103A800003B101350A220023504659460026FDF7AE
:103A9000B9F938E50C9BCDF818A05E46DDF834B0D6
:103AA0000B97FB1803934246DDF858A0139F0A9B1F
:103AB00019EE108A2846BBF1000F2ED0002B6BD1D7
:103AC000013F0BF1FF3B239B1599116001335044DB
:103AD000072B2490C2F804A0239361DC08320399D9
:103AE0003B788C1B9C42A8BF1C46002C0ADD239B04
:103AF000166001332044072B24905460239358DC34
:103B00003B780832002CACBF1C1B1C46002C14DC7C
:103B10001E440A9BBBF1000FD0D1002B3CD1139760
:103B2000DDE90B73FB189E42B346DDF818A0904602
:103B3000054628BF9B46FFF7A9BA102C23991EDD26
:103B400010250B4604E0103C102C02F1080215DD94
:103B5000013322491030072BCDE92330C2E900158B
:103B6000F1DD22AA4146484602F0ECFD002846D18C
:103B7000103C102CDDE9233025AAE9DC1946174B4F
:103B800013604B1C2044072BCDE92330546053DCD9
:103B90003B7808321E44BCE70A9B013B0A9392E73C
:103BA00022AA4146484602F0CDFD40BB249825AAF2
:103BB00095E722AA4146484602F0C4FDF8B93B7891
:103BC000249825AA9EE72D228DF86B20FEF763BE70
:103BD000F8830008000030400000E03F288400081F
:103BE00019EE101A22AA484602F0ACFD00287FF414
:103BF000FEA81C9A249D0DF19408FFF758BBC346FC
:103C0000FFF7A0BA0790DDE90E2303F1004308EEA9
:103C1000903A2D2308EE102A17934CE619EE101A4D
:103C200022AA484602F08EFD00287FF4E0A8249DD9
:103C30000DF19408FFF71BBA22AA4146484602F04C
:103C400081FD0028DBD13B78249825AA1E4460E73B
:103C500020AA1DABCDE90032B0EE480AF0EE680AAA
:103C6000039A1CAB0221484600F042FB472E074650
:103C700029D1029BDA0700F18E800A9A029247222C
:103C80009B460692209BFFF792BB19EE101A22AAC0
:103C9000484602F057FD00287FF4A9A81C9B249DEC
:103CA0000DF19408FFF70ABA20AA1DABCDE9003246
:103CB000B0EE480AF0EE680A039A1CAB03214846AE
:103CC00000F016FB0746039B462E07EB03057FF427
:103CD00060AB3B78302B00F069811C9BDDF808B0AD
:103CE0001D440A9B0293FFF758BBDDF80CA09DF81A
:103CF0006B20CDF818A0039008950A900D900B90BA
:103D0000FEF7DCBD1C9A0B92002A40F36E810399EA
:103D10000BF001030B4340F02E810B9B06936624AE
:103D20001BF4806F40F00181069B23EAE37A88E66A
:103D30000C9B109A9A180B9B0692002B40F34A8119
:103D40006724EDE719EE101A22AA484602F0FAFCA1
:103D500000287FF44CA81C9B0C9A249DD31A0DF1CB
:103D60009408FFF7C3B900230393FEF7FDBBD346C6
:103D7000FFF7E8B9DBF86430D80707D4BBF80C309C
:103D8000990503D4DBF8580001F016FD4FF0FF331E
:103D90000493FFF7E9B9DDE902B3FD180A9B02932A
:103DA00047230693FFF7F9BA54421032DFF8ACB25A
:103DB00021DA2A4610265D4619EE10BA04E008F111
:103DC0000808103C102C14DD01331032072BCDE90C
:103DD0002332C8E90056F2DD22AA5946484602F0CD
:103DE000B1FC00287FF4AEA9DDE923320DF194087F
:103DF000E7E7AB46154601332544072BCDE92335CC
:103E0000C8E900B47FF76BAA19EE101A22AA484637
:103E100002F098FC00287EF4EAAFDDE923350DF1CD
:103E20009408FEF7FABF591C484601F041FD0746C9
:103E3000002800F0FE8007902CE50C9B20930B9B44
:103E400016F8012CD97B8A42334609D1302003F879
:103E5000010C209B5A1E209213F8012C9142F6D09F
:103E6000392A0BBF0B9A0132927AD2B203F8012C95
:103E700099E530238DF86C307823FFE4002B1A4647
:103E800008BF01220F9B0392029A002B42F480721A
:103E90000A92FFF6B7AEDDE90EAB20AA1DABCDE965
:103EA00000324BEC10AB039A07951CAB022148463D
:103EB00000F01EFA4BEC18AB07461795D9E606231F
:103EC0000393FFF73FBA1CA8B0EE480AF0EE680A69
:103ED00002F03AFB00224FF07F5351EC100BFCF73D
:103EE000B9FC0022002382468B46FCF71BFF08B179
:103EF00001231C93564B0B93FCE4002972D1302212
:103F00008DF87A200DF17B02303302F8013B1EABB5
:103F1000D31A1493FFF7A2BA04F10F02D2B201210F
:103F2000FFF75ABA07936EE6672413990B78FF2BB5
:103F300000F0898000250B9A284603E0013001310A
:103F4000FF2B08D0934206DAD21A4B78002BF5D11A
:103F50000B780135F4E713910B920D900A950A9AAC
:103F60000D9B06991344169A02FB0313069323EA4A
:103F7000E37AFFF78ABA109B02EB030A51440691D9
:103F80006624CDE60F9B334F002BB4BF2D229DF846
:103F90006B20314BB8BF8DF86B20FEF77EBC0B9BBE
:103FA000069343E519EE10BAFFF7D1B851EC180BA0
:103FB00000220023FCF7B6FE00287FF48EAE039BA0
:103FC000C3F101031C9389E61BF0010F3FF451AAD2
:103FD000FFF74BBAC3F101031A44069222EAE27AD0
:103FE00067242EE50DF17A028EE7039B0BF00106A4
:103FF00056EA030205D14FF0010ACDF818A0662455
:104000001FE5109A02F1010A5344069323EAE37A6A
:10401000662416E5089B747853F8041B089316462B
:1040200041EAE1720392FEF79EBA02231493FFF76E
:1040300015BA19EE10BABBF80C3043F04003ABF8D8
:104040000C30FFF784B800230A930D9387E700BF75
:10405000E4830008DC830008E0830008288400086B
:10406000F0B50C468989656EB4F80EC0E769ADF20B
:10407000744D21F002010646ADF814100020616A6B
:104080001B950B911CAD4FF48061089018A8CDE9E9
:104090000032ADF816C00295069504910791099774
:1040A00001F084FBDDE9003202A93046FEF7E8F9B1
:1040B000051E07DB304602A901F054F9002818BF9D
:1040C0004FF0FF35BDF814305B0603D5A38943F0EC
:1040D0004003A381189801F06BFB28460DF2744D44
:1040E000F0BD00BF38B5324B1B6805460C4613B116
:1040F0009A6B002A3CD0B4F90C3018079AB20CD550
:104100002169A9B112F0010022D060690025404266
:10411000A061A56011B3002038BDD10640D552077B
:104120002AD4216943F00803A3819AB20029E9D176
:1041300002F42070B0F5007FE4D02846214601F05B
:104140006BFBB4F90C3021699AB212F00100DCD19A
:10415000950758BF6069A0600029DCD1120658BFDE
:104160000846D9D543F04003A3814FF0FF3038BD56
:10417000184601F053F9BEE7216B51B104F140023A
:10418000914204D0284601F0E5F9B4F90C30002240
:104190002263216921600022626023F02403C1E7C9
:1041A00043F0400309222A604FF0FF30A38138BD5D
:1041B0000C000020024B13B1024800F005B8704714
:1041C0000000000089540008002301461A461846E2
:1041D00003F0C2B92DE9F04F03690E69B34283B011
:1041E000C0F28280013E01F1140700F1140A57F871
:1041F00026305AF8262001338346B00000909A42B8
:104200000AEB860007EB86090190B2FBF3F836D380
:1042100000252A46BC4650465CF8044B03681FFA4A
:1042200084FE08FB0E554FEA154E240C08FB04E4EF
:10423000ADB2551BA2B2C2EB134215FA83F302EBE7
:1042400023429BB243EA0243E14540F8043B4FEA74
:1042500014454FEA2242DFD2009B5AF8033073B96B
:10426000019B043B9A4504D307E09A4506F1FF36CB
:1042700003D253F80429002AF7D0CBF8106058462F
:1042800002F038F800282BDB08F101085046002323
:1042900057F8041B04688AB29A1A0B0C12FA84F2BB
:1042A000C3EB144303EB224392B242EA0342B94503
:1042B00040F8042B4FEA2343EAD25AF826200AEBAF
:1042C00086036AB9043B9A4504D307E09A4506F190
:1042D000FF3603D253F80429002AF7D0CBF8106038
:1042E000404603B0BDE8F08F002003B0BDE8F08F7A
:1042F0002DE9F04F2DED048B59EC108B97B0066C27
:10430000249D0191CDE9048904460B9208934EB196
:10431000426C726001239340B360314601F0B4FDFA
:1043200000232364B9F1000AB4BF012300232B60EA
:10433000754BBCBF2AF0004ACDF814A033EA0A033B
:1043400000F0A9809DED047B002251EC170B0023A7
:104350008DED027BFCF7E6FC074680B1089A01234D
:104360001360259B002B00F0DA8268481860431E1A
:104370000093009817B0BDEC048BBDE8F08F9DED65
:10438000020B14AA15A9204602F076F85FEA1A5625
:10439000054640F09880DDE914763E4406F232404E
:1043A000202840F3B183C0F1400306F212400AFA1C
:1043B00003FA28FA00F04AEA0000FCF7D1F90123D9
:1043C000013EA1F1F8710E93514B0022FCF78AF8DF
:1043D00047A3D3E90023FCF73DFA47A3D3E9002321
:1043E000FCF782F8804630468946FCF7C9F944A3B9
:1043F000D3E90023FCF72EFA02460B464046494615
:10440000FCF772F880468946FCF7D4FC002283460C
:10441000002340464946FCF78FFC002840F072829A
:10442000BBF1160F00F261823A4B03EBCB03D3E9E9
:104430000023DDE90201FCF77FFC002870D0002397
:10444000BE1B0D93731E0BF1FF3B069300F15482CC
:1044500000230A93BBF1000F69DA0A9BCDF81CB068
:10446000A3EB0B030A93019B092BCBF1000A4FF03E
:10447000000B65D8052B40F34583043B01930026D0
:10448000019B023B032B00F2A886DFE813F05F04D8
:104490005C0454043704089A42F20F73CAF3130AF7
:1044A00013605AEA08031CD1259B002B00F091866B
:1044B000194B00930833259A0098136017B0BDEC90
:1044C000048BBDE8F08FDDE90212C2F31303084646
:1044D00043F07F510E97A6F2FF36149F41F440112E
:1044E00072E7259B002B40F0EC830C4B009340E7D8
:1044F00061436F63A787D23FB3C8608B288AC63FEA
:10450000FB799F501344D33F0000F07F15840008CF
:104510000000F83F408500083C840008388400080B
:10452000BE1B731E069300F1DF840D900A90069B5C
:104530005B44CDE9063B019B092B4FF0000A99D95A
:1045400000230126CDE90B3601934FF0FF33099389
:10455000099B109300216164204601F06FFC0090DC
:10456000002800F04286009B2364099B0E2B00F27A
:104570000181002E00F0FE800799002940F37E841F
:10458000C24B01F00F0203EBC2034FEA2118C90529
:10459000D3E9006740F11784BD4BDDE90201D3E99F
:1045A0000823FCF781FA032341EC180B08F00F08ED
:1045B0000F93B8F1000F1DD0CDF844B0DFF8D092C2
:1045C000D346DDF83CA018F0010F09D0304639463B
:1045D000D9E90023FCF73EF90AF1010A06460F4625
:1045E0005FEA680809F10809EDD1CDF83CA0DA4688
:1045F000DDF844B051EC180B32463B46FCF754FA58
:10460000804689460D9B43B1A24B00224046494655
:10461000FCF792FB002840F063850F98FCF7B0F898
:1046200042464B46FCF716F99B4B0022FBF75CFF1A
:10463000099B0646A1F15077002B00F0EC83079B05
:104640001193099B0F930C9B002B00F0D7840F9ABA
:104650008E4B924903EBC20353E902230020FCF77F
:1046600023FA32463B46FBF73DFF06460F464046DF
:104670004946FCF79FFB1290FCF782F802460B4676
:1046800040464946FBF72EFF129BDDF8008047ECC1
:10469000186B303308F8013B06460F4602460B46BE
:1046A00051EC180BFCF766FB002840F065854FF0D5
:1046B000000909EE105A09EE904A45464C46CDE9EC
:1046C00012AB59EC188B2AE00F9B01349C424BDA59
:1046D000734B404649460022FCF7BCF8704B002261
:1046E0008046894630463946FCF7B4F88B46824608
:1046F000FCF760FB0746FCF743F802460B465046C2
:104700005946FBF7EFFE303705F8017B42464B4632
:1047100006460F46FCF710FB002840F0288532467D
:104720003B465C490020FBF7DDFE42464B46FCF76A
:1047300003FB0028C8D0119B009A0793A84619EEE6
:10474000904A19EE105A02E0904500F0F584C146F7
:1047500018F8013D392BF7D00133DBB288F800306F
:10476000079B01330793ADE1DDE912AB19EE105A57
:1047700019EE904A159B002BC0F29680079A0E2ADC
:1047800000F39280414B03EBC203D3E900AB0B9BD8
:10479000002B1BDA099B002B18DC40F05583414BA2
:1047A000504600225946FCF755F802460B46DDE913
:1047B0000201FCF7CBFADDF824A05646002800F0F1
:1047C000DD820B9B009F6FEA0308E0E2DDE90267F0
:1047D00052465B4630463946FCF766F9FCF7EAFA82
:1047E0008146FBF7CDFF52465B46FCF733F80B469C
:1047F000024639463046FBF775FEDDF800804B4631
:10480000303308F8013B099B012B00F09E834FF0E9
:10481000010908EE105A08EE904A1D464446C84663
:104820001DE052465B4630463946FCF73DF9FCF741
:10483000C1FA8146FBF7A4FF52465B46FCF70AF833
:1048400008F101080B46024639463046FBF74AFE9E
:1048500009F13003454504F8013B00F07183104B2A
:104860000022FBF7F7FF0022002306460F46FCF765
:1048700059FA0028D5D0A04618EE105A18EE904AE2
:10488000079B01330793C1461CE100BF4085000828
:10489000188500080000F03F00001C400000E03FC9
:1048A00000002440000014400C9A002A3FD0019AD6
:1048B000012A40F3CD82099B03F1FF38C245C0F2C3
:1048C0007B82AAEB0808099B002BC0F27083069A32
:1048D00011460A9A194417461A4406910A92012170
:1048E000204601F081FB064624E00123BE1B0D9308
:1048F000731E06937FF5ACADC6F101030A93002346
:104900000693A7E55846FBF73BFF42464B46FCF7AC
:1049100009FA00287FF484AD0BF1FF3B80E5CB4B17
:104920000093009817B0BDEC048BBDE8F08F0A9F90
:104930000C9ED046002F0CDD069A002A09DD0A994C
:10494000BA421346A8BF3B46C91AFF1AD31A0A91A6
:104950000693BAF1000F1BD00C9B002B00F0AA812C
:10496000B8F1000F10DD31464246204601F002FC4E
:104970002A4601460646204601F04CFB29460346DE
:1049800020461D4601F080FABAEB080240F0938100
:104990000121204601F028FBBBF1000F824600F305
:1049A000B880019B012B40F391814FF0000801205A
:1049B000BBF1000F40F0B980069A104410F01F00C0
:1049C00000F09780C0F12003042B40F315840A9B6C
:1049D000C0F11C00034402440A93074406920A9B58
:1049E000002B05DD29461A46204601F00FFC05463E
:1049F000069B002B05DD51461A46204601F006FCB9
:104A000082460D9B002B40F03A81099B002B40F31E
:104A10001F810C9B002B40F0A080079B0133079364
:104A2000DDF80080DDF82490012707E02946002307
:104A30000A22204601F032FA01370546514628463F
:104A4000FFF7C8FB4F4500F1300008F8010BEDDB24
:104A5000099A002AC8BF9346009AD8BF4FF0010BAD
:104A6000034693440027294601222046019301F082
:104A7000CDFB5146054601F03DFC002840F3B281D4
:104A80001BF8013C009A0BF1FF3B04E05A4500F093
:104A9000EE811BF8013D392B0BF10109F6D00133F2
:104AA0008BF800305146204601F0EEF956B12FB197
:104AB000B74203D03946204601F0E6F93146204698
:104AC00001F0E2F92946204601F0DEF9002389F8D9
:104AD0000030089B1A46079B1360259B002B3FF470
:104AE00048AC0098C3F8009017B0BDEC048BBDE84B
:104AF000F08F1C200A9B03440A93069B034407443F
:104B000006936CE70126BBE4C0F1200008FA00F030
:104B100053E401465A46204601F02CFB019B012B31
:104B2000824640F3E3814FF00008DAF810300AEBD8
:104B30008303186901F008FAC0F120003CE7314610
:104B400000230A22204601F0A9F9109B002B0646FB
:104B500040F32B83CDF81C900993002F00F325819F
:104B6000B8F1000F40F00C82B046049B0199009F01
:104B700003F001020B920A430A92099A7B1E1A441F
:104B8000099251462846FFF725FB314683462846C1
:104B900001F0B0FB424651468146204601F0C8FB79
:104BA000C26801460BF13003002A42D10490284626
:104BB000069301F09FFB04990290204601F064F9EE
:104BC000029A069B1AB90A99002900F0E082B9F10D
:104BD000000FC0F29781019941EA09090B9951EA46
:104BE000090100F08F81002A00F3E581099A3B70EA
:104BF00007F101099742CB4600F0F68129460023D0
:104C00000A22204601F04AF94645054631464FF052
:104C100000034FF00A02204612D001F03FF941464E
:104C2000064600230A22204601F038F94F46804606
:104C3000A7E72046029301F027F9029B0122C6E76D
:104C400001F02CF94F46064680469AE71484000886
:104C5000019B022B00F381800C9B002B7FF47DAF26
:104C600051462846FFF7B6FA079ADDF800B000F182
:104C7000300301320BF8013B07920027F3E651465F
:104C8000284601F037FB0028BFF6BFAE29460023B7
:104C90000A22204601F002F9079B03F1FF390C9B21
:104CA0000546002B7FF44BAF109B002B40F3768220
:104CB0000993B5E652462946204601F05BFA0546BF
:104CC00066E6C34B00930333FFF7F5BBDDE904123F
:104CD00000297FF46AAEC2F31303002B7FF465AEA4
:104CE000BC4B1340002B00F03B820A9B01330A931C
:104CF000069B013306934FF0010858E601230C93FD
:104D00000B9B079A134410930133012B1F46099301
:104D1000B8BF01270021172F61647FF71DAC012266
:104D200004235B0003F11400B842114602F10102B2
:104D3000F7D9616410E401230C930B9F002F4CDD25
:104D400010970997E6E700230C93D9E700230C930B
:104D5000F3E7109BCDF81C900993099B002B7FF47F
:104D600030AD51460522204601F098F801468246B2
:104D7000284601F0BFFA00287FF723AD009F3B468D
:104D8000312203F8012B079A009302F101085146E2
:104D9000204601F079F808F10103DDF8009007934F
:104DA0000097002E7FF48AAE8CE631463A462046C4
:104DB00001F02CFA0646D3E6A8EB0A039B44C24650
:104DC0004FF000087FE59DED027B02230F93B0EECC
:104DD000478AF0EE678AFFF7ECBB01230B93099338
:104DE000FFF7B6BB03D1019BDB073FF549AED946C0
:104DF0001BF8013D302BFAD054E60F98FBF7C0FCAE
:104E000042464B46FBF726FD734B0022FBF76CFB3B
:104E10000646A1F15077714B404649460022FBF708
:104E200061FB32463B4680468946FBF7A3FF0028DC
:104E300040F09281324607F1004340464946FBF775
:104E40007BFF00283FF496AC4FF0000A5646B8E4CA
:104E50000E9A002A00F0CE8003F23343069A1A44D9
:104E600006920A9A17461A440A92D04637E5079ADC
:104E700001320792009A3123137013E600F0568135
:104E8000079B5E42564B06F00F0203EBC203D3E9C9
:104E90000023DDE90201FBF7DDFC3611804689467F
:104EA00000F08C8102224F4F49EC188B0023D94629
:104EB000D3469246F20706D5D7E90023FBF7CAFC92
:104EC0000AF1010A0123761007F10807F2D1CDF8A3
:104ED0003CA0DA46CB4659EC188B002B3FF492AB42
:104EE00080468946FFF78EBB0D9005E5049B002B9D
:104EF0007FF419AEDDE90412C2F31303002B3FF473
:104F0000EFAE10E6002A12DD294601222046019369
:104F100001F07CF95146054601F0ECF90028019BAF
:104F200040F32F81392B00F00D810BF13103B9468D
:104F3000374609F8013B079B013307934646B1E525
:104F4000A04618EE105A18EE904A02460B46FBF7A0
:104F5000CBFA52465B4606460F46FBF70BFF60B99D
:104F600052465B4630463946FBF7DCFE00283FF4EC
:104F700087AC5FEAC9717FF583AC009AFFF7E7BBA6
:104F80007168204600F05AFF0746002800F01A8199
:104F9000336902339A0006F10C010C30FBF780F9FB
:104FA00039460122204601F031F98046DDE5DDE990
:104FB00009239F1A93E4392B00F0C480B9460133CA
:104FC00009F8013B079B013337460793464669E5DD
:104FD000388400080000F07F00001C4000001440EE
:104FE0004085000818850008079A01323746079265
:104FF000464638E5149BC3F136032FE70F9B8649DD
:1050000001EBC30132463B4651E90201FBF722FCAA
:1050100002460B464046494643EC182BFBF7CAFEB6
:105020000746FBF7ADFB0B46024649464046FBF7F9
:1050300059FADDF8008007F1300308F8013B0F9BB7
:10504000012B06460F4627D00F9B009ACDF83CA0B7
:105050001344CDF848B0C2469B46704B0022304600
:105060003946FBF7F7FB89468046FBF7A3FE074668
:10507000FBF786FB303702460B4640464946FBF7B6
:1050800031FA0AF8017BDA4506460F46E5D1D046EB
:10509000DDF848B0DDF83CA0614B002251EC180B64
:1050A000FBF722FA32463B46FBF746FE002859D171
:1050B00053EC182B5A490020FBF714FA32463B46B2
:1050C000FBF758FE00283FF455ABC14608F1FF3806
:1050D00019F8013C302BF8D0119B01330793F1E410
:1050E000099B002B3FF489AE109B002B7FF742AB4E
:1050F0004A4B002240464946FBF7ACFB80460F98DE
:1051000089460130FBF73CFB42464B46FBF7A2FBCE
:10511000444B0022FBF7E8F9079A109B0F93013AE2
:105120000646A1F150771192FFF78DBA0223DDE90F
:1051300002890F93FFF766BA079B01330793312368
:10514000FFF70CBB079ABB463923013237460BF8F1
:10515000013B0792464695E44FF0000A56460DE69D
:10516000984624E4119B009A0793FFF7F0BAA846EB
:1051700019EE904A19EE105A119B01330793C1465C
:10518000A0E47FF4D4AEDA077FF5D1AECAE6392BBE
:10519000D8D0B9F1000F3FF7C8AEC8E6019B022B8B
:1051A0003FF7D7ADCDF81C905AE5019B022B3FF796
:1051B000D0AD109BCDF81C900993CEE402230F9341
:1051C000FFF720BA0246184B184840F2EA2102F0D5
:1051D00009FA174B0093FFF7CCB8002666643146F6
:1051E000204600F02BFE009058B90F4B0F480022CC
:1051F0004FF4D57102F0F6F93FF4F1ABC0F13C0089
:1052000078E44FF0FF33009A10930993012322644E
:105210000B960C93FFF7AEBA4085000800002440BF
:105220000000E03F00001C40488400085C84000847
:105230003C840008B1F90C202DE9F0410D4611071E
:10524000804647D46B6842F40062002BAA815DDD82
:10525000AC6A002C57D00023D8F80060C8F80030A2
:1052600093B212F4805255D10123E9694046A04718
:10527000431C66D0AB89AC6A5F0705D56A682B6BA7
:10528000801A0BB1EB6BC01AE96902460023404655
:10529000A047411C40D1D8F80030002B3CD01D2B3A
:1052A00001D0162B55D1AB892A692A6023F40063FB
:1052B0000022AB816A60296BC8F8006019B305F160
:1052C0004003994202D0404600F044F90020286390
:1052D000BDE8F0812F69B7B193B22E682F609A07AD
:1052E0000CBF6B690023F61BAB600AE06C6AE969CE
:1052F00033463A464046A047041EA6EB0406274420
:1053000017DD002EF2DC0020BDE8F081EB6B002BF6
:105310009EDCF8E7286DAFE7B5F90C302A692A6002
:1053200023F400630022AB81DB046A60C3D52865E7
:10533000C1E7AB8943F04003AB814FF0FF30BDE8DC
:10534000F081D8F80030002B94D01D2B06D0162BFE
:1053500004D0AB8943F04003AB81D5E7C8F80060C7
:10536000D1E700BF38B50C46054608B1836BA3B141
:10537000B4F90C00B8B1636EDB0701D4810515D513
:1053800028462146FFF756FF636EDA07054602D42A
:10539000A3899B050ED5284638BD00F03FF8B4F927
:1053A0000C000028E7D10546284638BDA06D00F066
:1053B00001FAE5E7A06D00F0FFF9284638BD00BF0F
:1053C00010B500230446C0E90033C0E904338181ED
:1053D000C281836043668361194608225C30FCF712
:1053E000EBFF07480749084A084BE362C4E9074056
:1053F000C4E9091204F15800BDE8104000F0D6B924
:10540000D9650008FD6500083D6600085D66000876
:10541000014900F0A3B900BFA576000810B5044605
:10542000114800F0C7F9A26BC2B904F53B730F48ED
:10543000C4F8E0220321C4E9B913E06304216068E1
:10544000FFF7BEFFA06801220921FFF7B9FFE0685E
:1054500002221221FFF7B4FF0123A363BDE810402D
:10546000014800F0A9B900BF9C0A002011540008AF
:10547000014800F09FB900BFB00A0020014800F0C9
:105480009BB900BFB00A002038B5084B084D5B1B24
:105490009C1007D0043B1D44013C55F80439984743
:1054A000002CF9D1BDE8384002F068BF9C870008A5
:1054B00098870008F8B5244F0C46064600F0B2FC69
:1054C000BB685D68C4F57E610F3125F003054B199B
:1054D00023F47F6323F00F03A3F58054B4F5805FBA
:1054E00007DB0021304601F065F8BB682B44984289
:1054F00004D0304600F09CFC0020F8BD61423046EC
:1055000001F058F801300DD0104AB96813682D1B0E
:1055100045F0010530461B1B4D60136000F088FC10
:105520000120F8BD0021304601F044F8BA68831A22
:105530000F2BDEDD064C0549246843F00103001BF8
:1055400053600860D5E700BF3C040020D409002068
:105550004408002000295ED0F8B50C46064600F04D
:1055600061FC54F8043CDFF8F0C123F00101A4F120
:1055700008004218DCF808705568974225F00305CA
:1055800000F08880DF07556033D454F8087CC01BD6
:105590000CF108048368A342394469D05719D0F844
:1055A0000CE07F68C3F80CE0CEF80830FB0740F150
:1055B000968041F0010343601160B1F5007F33D262
:1055C000CB08DCF8044001334A0901219140214312
:1055D0000CEBC3025CF83340CCF80410083AC0E985
:1055E00002424CF83300E0603046BDE8F84000F07D
:1055F0001FBC53195B68DF070ED429440CF1080463
:105600009368A34273D0D468DC6041F00102A360C8
:1056100042604150D1E7704741F00103B1F5007F8E
:1056200044F8043C1160CBD3B1F5206F4FEA51230D
:105630004AD28B0903F13905ED0003F138025CF819
:1056400005300CEB0504083C9C4259D05A6822F006
:1056500003028A4202D99B689C42F7D1DC68C0E908
:105660000234A060D8603046BDE8F84000F0E0BBEE
:1056700053195B68DB0766D4D2E90223294441F061
:105680000104D3609A60446041503046BDE8F84060
:1056900000F0CEBBDB07294407D454F8083CC01AFD
:1056A0001944D0E90223D3609A60294B1B6841F06A
:1056B00001028B424260CCF8080095D8254B304659
:1056C0001968FFF7F7FE8FE7142B0AD9542B21D85E
:1056D0000B0B03F16F05ED0003F16E02AFE72944F8
:1056E0008EE703F15C05ED0003F15B02A7E741F0F3
:1056F0000103CCE90400C0E902444360415073E770
:10570000DCF804109210012505FA02F20A43CCF8E5
:105710000420A4E7B3F5AA7F06D8CB0B03F17805E4
:10572000ED0003F177028AE740F25452934206D823
:105730008B0C03F17D05ED0003F17C027FE74FF454
:105740007E757E227BE741F00103436011604BE7E9
:1057500048080020040A00203C0400202DE9F843FA
:105760000746884600F538764FF00009D6E901541F
:10577000013D11D4A389012B05F1FF3508D9B4F9F6
:105780000E30013304D021463846C04749EA0009AB
:105790006B1C04F16804EDD13668002EE6D1484652
:1057A000BDE8F883004870473C090020704700BFFF
:1057B000704700BF704700BF704700BF70B50C4610
:1057C000B1F90E10002996B015461E4614DB6A4644
:1057D00002F06AF800280FDB019A02F47042A2F589
:1057E0000052B2FA82F252094FF480634FF4006023
:1057F00032602B6016B070BDA189002311F08000CB
:10580000336004D0402218462A6016B070BD4FF4B1
:1058100080632B6016B070BD70B58B899D0782B018
:105820000C4607D501F143030122C1E904320B60A4
:1058300002B070BD01AB6A460646FFF7BFFF009994
:105840000546304600F034F880B1B4F90C20174B0F
:10585000F3630199206042F08003009AA381C4E9B8
:10586000040299B92B43A38102B070BDB4F90C3086
:105870009A05DDD423F0030304F1430243F002034D
:105880000121C4E90421A3812260D1E7B4F90E10FB
:10589000304602F08FF910B9B4F90C30E2E7A28972
:1058A00022F0030242F0010213B2DBE711540008B8
:1058B0002DE9F04F01F10B05162D83B0064624D8D3
:1058C000102900F2B78000F0ADFA1025022118234C
:1058D000DFF8F0844344A3F108025C68944200F0CE
:1058E000B580636823F003032344D4E902515A6866
:1058F000E96042F0010230468D605A6000F098FA8B
:105900000834204603B0BDE8F08F35F0070500F1FC
:105910009180A94200F28E8000F084FAB5F5FC7FF8
:10592000C0F090816B0A00F08C80042B00F266813D
:10593000AB0903F1390103F13807CB00DFF88484A8
:105940004344A3F108005C68A04206D10CE0002AA1
:1059500080F22281E468A04206D0636823F003034A
:105960005A1B0F2AF3DD3946D8F81040DFF858C427
:10597000644577D0626822F00302531B0F2B00F3BB
:105980006F81002BC8E904CC80F26081B2F5007F02
:1059900080F01081D3080133500901228240D8F8E9
:1059A000040058F83370A76008EBC30E0243AEF151
:1059B0000800E060C8F8042048F83340FC608B1011
:1059C00001209840904254D8104206D121F00301A2
:1059D0004000104201F10401FAD008EBC1094C4625
:1059E0008E46E768BC4207D114E1002B80F21B8190
:1059F000FF68BC4200F00E817A6822F00302531B5C
:105A00000F2BF2DDD7E902E4791945F001057D603D
:105A100043F00105CEF80C403046C4F808E0C8E970
:105A20000411C1E902CC4D60BB5000F001FA07F14E
:105A3000080402E00C2333600024204603B0BDE8D4
:105A4000F08F4FF4007340213F2777E7DC68A342D3
:105A500008BF02317FF445AFD8F81040DFF868C3C3
:105A6000644587D1D8F804208B10012098409042DB
:105A7000AAD9D8F80840676827F00307BD4202D8C2
:105A80007B1B0F2B77DCDFF84493CA4BD9F800203F
:105A90001B6801322B4404EB070A00F02E8103F54A
:105AA00080530F3323F47F6B2BF00F0B5946304696
:105AB00000F080FD411C024600F0EB80824500F2C0
:105AC000E680BD4B196859441960084600F04B81C7
:105AD000D9F80010019301311BBFA2EB0A0A504410
:105AE000C9F80020186012F0070A00F01481CAF10A
:105AF00008010A44CAF5805193440831A1EB0B0117
:105B0000C1F30B0949463046009200F053FD421C98
