:020000040800F2
:10000000004000208D1300081503000817030008A6
:10001000190300081B0300081D030008000000006E
:100020000000000000000000000000001F030008A6
:100030002103000800000000230300082503000836
:10004000DD130008DD130008DD130008DD130008D0
:10005000DD130008DD130008DD130008DD130008C0
:10006000DD130008DD130008DD130008DD130008B0
:10007000DD130008DD130008DD130008DD130008A0
:10008000DD130008DD130008DD130008DD13000890
:10009000DD130008DD130008DD130008DD13000880
:1000A000DD130008DD130008DD130008DD13000870
:1000B000DD1300080000000000000000DD13000850
:1000C000DD130008DD130008DD1300080000000048
:1000D000DD130008DD130008DD130008DD13000840
:1000E000DD130008DD130008DD1300080000000028
:1000F0000000000000000000000000000000000000
:10010000000000000000000000000000DD130008F7
:100110000000000000000000DD13000800000000E7
:1001200000000000000000000000000000000000CF
:1001300000000000000000000000000000000000BF
:10014000DD130008DD1300080000000000000000BF
:10015000000000000000000000000000000000009F
:10016000DD130008DD130008DD130008DD130008AF
:10017000DD13000800000000000000000000000087
:0801800000000000DD1300087F
:1001880010B5054C237833B9044B13B10448AFF3C9
:1001980000800123237010BD4C08002000000000DF
:1001A8006C26000808B5034B1BB103490348AFF39D
:1001B800008008BD00000000500800206C260008E0
:1001C80070B58AB00024059406940794089409949D
:1001D800204B5A6942F400225A615A6902F40022FB
:1001E8000192019A5A6942F480025A615A6902F4EA
:1001F80080020292029A5A6942F400325A615A699C
:1002080002F400320392039A5A6942F480225A6136
:100218005B6903F480230493049B0F4D22464FF43B
:100228000051284600F046FA4FF4005605960B4B4D
:100238000693079405A90A4800F078F90596012362
:1002480006930794089405A9284600F06FF90AB0A8
:1002580070BD00BF001002400004004800002110DB
:100268000008004830B591B0002407940894099418
:100278000C94019402940394049405940225069521
:1002880001230A9310230B930D950E944FF46013DA
:100298000F9306A800F014FA0F2301930295039414
:1002A8004FF4806304930594294601A800F05AFD91
:1002B80011B030BD08B500F0B9F8FFF7D3FFFFF76C
:1002C8007FFF00F03DF8732001F0FAF8FBE7704774
:1002D80000B583B00C4B9A6942F001029A619A69A1
:1002E80002F001020092009ADA6942F08052DA6163
:1002F800DB6903F080530193019B072000F0BAF8F3
:1003080003B05DF804FB00BF001002407047FEE731
:10031800FEE7FEE7FEE770477047704708B500F054
:1003280097F808BD054BD3F8882042F47002C3F84B
:1003380088204FF000629A60704700BF00ED00E02F
:1003480008B50B480B4B03604FF41643436000237A
:100358008360C36003610C2242618361C3610362ED
:10036800436200F0DDFF00B908BDFFF7B0FFFBE70F
:10037800A00800200044004000B589B00023039382
:1003880004930593069307930268144B9A4202D08C
:1003980009B05DF804FB03F5E633DA6942F400328C
:1003A800DA61DA6902F400320192019A5A6942F478
:1003B80000325A615B6903F400330293029B0C23F9
:1003C80003930223049300230593069307230793BB
:1003D80003A94FF0904000F0A9F8D9E70044004085
:1003E80010B504460E4B18784FF47A73B3FBF0F34C
:1003F8000C4A1068B0FBF3F000F082F868B90F2CD3
:1004080001D901200AE0002221464FF0FF3000F018
:1004180043F8054B1C60002000E0012010BD00BF20
:1004280004000020000000200800002008B5074A4A
:10043800136843F010031360032000F01BF800203A
:10044800FFF7CEFFFFF744FF002008BD0020024061
:10045800034A1168034B1B780B441360704700BFB5
:100468002009002004000020014B1868704700BFD5
:1004780020090020074AD36823F4E0631B041B0CFF
:10048800000200F4E060034343F0BF6343F4003329
:10049800D360704700ED00E030B4174BDB68C3F35E
:1004A8000223C3F10704042C28BF04241D1D062DB4
:1004B80018D9033B4FF0FF3505FA04F421EA04018B
:1004C800994005FA03F322EA0303194300280BDBDA
:1004D8000901C9B200F1604000F5614080F80013DD
:1004E80030BC70470023E5E700F00F000901C9B2EE
:1004F800024B1954F4E700BF00ED00E014ED00E0F2
:100508000138B0F1807F0AD2064B5860064AF021C4
:1005180082F823100020986007221A607047012093
:10052800704700BF10E000E000ED00E0F0B583B0D8
:10053800002336E0032400E00024B4403C430235A5
:10054800584E46F82540584C2568D44325EA0206FB
:100558004F6817F4803F01D042EA0506524D2E60DD
:100568006D6804EA05064F6817F4003F01D042EAB7
:1005780005064D4D6E60AD6804EA05064F6817F430
:10058800801F01D042EA0506474DAE60ED682C4059
:100598004E6816F4001F01D042EA0504424AD460AE
:1005A80001330A6832FA03F47AD001249C402240CD
:1005B800F6D04D686E1E012E03D9112D01D0122DD3
:1005C80012D186685F000325BD4026EA0506CD687E
:1005D800BD4035438560466826EA04064D68C5F384
:1005E80000149C4034434460C7685E000325B5404E
:1005F800EC4327EA05078D68B5403D43C5604D6863
:10060800022D01D0122D13D1DF08083750F827E04A
:1006180003F007054FEA850C0F2505FA0CF52EEABD
:10062800050E0D6905FA0CF545EA0E0540F8275048
:10063800056825404C6804F00304B4402C4304606A
:100648004C6814F0805FABD0184CA56945F00105E3
:10065800A561A46904F001040194019C9D08AE1CE5
:10066800104C54F8267003F00304A6000F24B4407D
:1006780027EA0407B0F1904F3FF45EAF0C4CA0425C
:100688000AD004F58064A04208D004F58064A04232
:100698003FF450AF052450E701244EE702244CE70D
:1006A80003B0F0BD0000014000040140001002400A
:1006B800000400480AB181617047816270470000F8
:1006C800002800F0018370B582B00446036813F077
:1006D800010F3BD0B54B5B6803F00C03042B1ED015
:1006E800B24B5B6803F00C03082B13D06368B3F5B7
:1006F800803F68D0002B40F0928003F1804303F5DF
:1007080004331A6822F480321A601A6822F48022AC
:100718001A605DE0A54B5B6813F4803FE6D04FF4A8
:10072800003393FAA3F3A14B19684FF4003393FAFB
:10073800A3F3B3FA83F303F01F03012202FA03F3CE
:100748000B4203D06368002B00F0C082236813F0CB
:10075800020F00F0C580954B5B6813F00C0F00F09A
:100768009C80924B5B6803F00C03082B00F08F8091
:100778002369002B00F0F280012292FAA2F3B3FA67
:1007880083F303F1845303F584139B001A60FFF786
:100798006BFE0546022393FAA3F3844B19680223E0
:1007A80093FAA3F3B3FA83F303F01F03012202FAC7
:1007B80003F30B4240F0C380FFF756FE401B0228AC
:1007C800E8D903208BE2794A136843F48033136035
:1007D800764AD36A23F00F03A1680B43D362636898
:1007E800002B36D0FFF740FE05464FF4003393FA4E
:1007F800A3F36E4B19684FF4003393FAA3F3B3FADB
:1008080083F303F01F03012202FA03F30B429DD185
:10081800FFF72AFE401B6428E7D903205FE2B3F5FF
:10082800A02F09D0614B1A6822F480321A601A6826
:1008380022F480221A60CBE703F18043A3F53C330E
:100848001A6842F480221A601A6842F480321A60E8
:10085800BEE7FFF709FE05464FF4003393FAA3F30A
:10086800524B19684FF4003393FAA3F3B3FA83F3A6
:1008780003F01F03012202FA03F30B423FF466AFB1
:10088800FFF7F2FD401B6428E6D9032027E2474B17
:100898005B6813F4803F7FF46BAF022393FAA3F3F2
:1008A800424B1968022393FAA3F3B3FA83F303F0D4
:1008B8001F03012202FA03F30B4203D02369934278
:1008C80040F006823948036823F0F8036169F8228A
:1008D80092FAA2F2B2FA82F201FA02F21343036028
:1008E800236813F0080F00F08D80A369002B61D0F6
:1008F800012191FAA1F2B2FA82F22D4B13449B0026
:100908001960FFF7B1FD0546022393FAA3F293FAA3
:10091800A3F293FAA3F2254A516A93FAA3F3B3FA1E
:1009280083F303F01F03012202FA03F30B4269D198
:10093800FFF79AFD401B0228E6D90320CFE11B48A8
:10094800036823F0F8036169F82292FAA2F2B2FA76
:1009580082F201FA02F213430360C1E7012393FA1A
:10096800A3F3B3FA83F303F1845303F584139B00D1
:1009780000221A60FFF778FD0546022393FAA3F3D5
:100988000A4B1968022393FAA3F3B3FA83F303F02B
:100998001F03012202FA03F30B42A1D0FFF764FD03
:1009A800401B0228E9D9032099E100BF001002404A
:1009B80020819010012292FAA2F2B2FA82F2B74B89
:1009C80013449B0000221A60FFF74EFD05460223E0
:1009D80093FAA3F293FAA3F293FAA3F2B04A516AF4
:1009E80093FAA3F3B3FA83F303F01F03012202FA85
:1009F80003F30B4206D0FFF737FD401B0228E6D968
:100A080003206CE1236813F0040F00F0A980A44BC5
:100A1800DB6913F0805F0BD1A14BDA6942F0805299
:100A2800DA61DB6903F080530193019B012500E043
:100A380000259C4B1B6813F4807F10D0E368012BC2
:100A480021D063BB03F1804303F504331A6A22F013
:100A580001021A621A6A22F004021A6218E0914A24
:100A6800136843F480731360FFF7FEFC06468D4B52
:100A78001B6813F4807FE1D1FFF7F6FC801B642824
:100A8800F5D903202BE1864A136A43F00103136268
:100A9800E368002B3CD0FFF7E7FC06462EE0052B69
:100AA80009D07F4B1A6A22F001021A621A6A22F0F0
:100AB80004021A62ECE77A4B1A6A42F004021A62DC
:100AC8001A6A42F001021A62E2E7022393FAA3F3D8
:100AD800734B596A022393FAA3F3B3FA83F303F02F
:100AE8001F03012202FA03F3194238D1FFF7BCFCB5
:100AF800801B41F28833984200F2EC80022393FA7B
:100B0800A3F293FAA3F3002BDFD0654B196AE1E750
:100B1800FFF7AAFC064618E0022393FAA3F3604BFA
:100B2800596A022393FAA3F3B3FA83F303F01F037A
:100B3800012202FA03F3194211D0FFF795FC801B3A
:100B480041F28833984200F2C780022393FAA3F255
:100B580093FAA3F3002BDFD0514B196AE1E7B5BB39
:100B6800E369002B00F0BA804D4A526802F00C028B
:100B7800082A00F09980022B2FD04FF0807393FA47
:100B8800A3F3B3FA83F303F1845303F584139B00AF
:100B980000221A60FFF768FC04464FF0007393FACE
:100BA800A3F33F4B19684FF0007393FAA3F3B3FA1A
:100BB80083F303F01F03012202FA03F319426BD0F7
:100BC800FFF752FC001B0228E7D9032087E0344ACC
:100BD800D36923F08053D361C2E74FF0807393FA4F
:100BE800A3F3B3FA83F303F1845303F584139B004F
:100BF80000221A60FFF738FC05464FF0007393FA9D
:100C0800A3F3274B19684FF0007393FAA3F3B3FAD1
:100C180083F303F01F03012202FA03F3194206D0FB
:100C2800FFF722FC401B0228E7D9032057E01C49A4
:100C38004B6823F47413626A206A024313434B60BF
:100C48004FF0807393FAA3F3B3FA83F303F1845359
:100C580003F584139B0001221A60FFF705FC044684
:100C68004FF0007393FAA3F30D4B19684FF000731C
:100C780093FAA3F3B3FA83F303F01F03012202FAF2
:100C880003F3194206D1FFF7EFFB001B0228E7D94F
:100C9800032024E0002022E0002020E020819010A2
:100CA8000010024000700040012B1AD0104B5B6806
:100CB80003F48031226A914215D103F47013626AF9
:100CC800934212D100200AE001207047012006E07B
:100CD800012004E0032002E0032000E0002002B02D
:100CE80070BD0120FBE70120F9E70120F7E700BF0D
:100CF80000100240164B5B6803F00C02082A01D072
:100D08001448704703F470114FF4701292FAA2F26B
:100D1800B2FA82F221FA02F20F49885C0C4AD26ACE
:100D280002F00F020F2191FAA1F1B1FA81F1CA4044
:100D38000A498A5C13F4803F05D0064BB3FBF2F3F3
:100D480000FB03F07047064B03FB00F0704700BF41
:100D58000010024000127A009C260008AC26000809
:100D680000093D00002800F0BE8070B50D4604461D
:100D7800614B1B6803F007038B420BD25E4A136872
:100D880023F007030B431360136803F007038B4238
:100D980040F0AB80236813F0020F06D0574A53681F
:100DA80023F0F003A1680B435360236813F0010F8D
:100DB8005AD06368012B2DD0022B40D0022292FA20
:100DC800A2F24E4A1068022292FAA2F2B2FA82F213
:100DD80002F01F02012101FA02F2104200F087809E
:100DE80046494A6822F0030213434B60FFF73CFB75
:100DF8000646424B5B6803F00C036268B3EB820F54
:100E080032D0FFF731FB801B41F288339842F0D98A
:100E1800032067E04FF4003292FAA2F2374A1068D2
:100E28004FF4003292FAA2F2B2FA82F202F01F02F2
:100E3800012101FA02F20242D2D1012052E04FF020
:100E4800007292FAA2F22D4A10684FF0007292FADC
:100E5800A2F2B2FA82F202F01F02012101FA02F2B2
:100E68001042BDD101203DE0234B1B6803F007036E
:100E7800AB420AD9204A136823F007032B431360B7
:100E8800136803F00703AB4233D1236813F0040F50
:100E980006D01A4A536823F4E063E1680B435360B1
:100EA800236813F0080F07D0144A536823F46053DB
:100EB800216943EAC1035360FFF71CFF0F4B5B68CE
:100EC80003F0F003F02292FAA2F2B2FA82F2D340CF
:100ED8000B4AD35CD8400B4B18600B4B1868FFF7D4
:100EE8007FFA002070BD012070470120FAE7012039
:100EF800F8E70120F6E700BF00200240001002409A
:100F0800842600080000002008000020014B186813
:100F1800704700BF0000002008B5FFF7F7FF074B38
:100F28005B6803F4E0634FF4E06292FAA2F2B2FA6B
:100F380082F2D340024AD35CD84008BD0010024078
:100F48009426000808B5FFF7E1FF074B5B6803F438
:100F580060534FF4605292FAA2F2B2FA82F2D3408E
:100F6800024AD35CD84008BD00100240942600080D
:100F780038B5044683680269134342691343C2695A
:100F88001343016808686C4A024013430B602268E7
:100F9800536823F44053E1680B435360A269236A02
:100FA8001A4321688B6823F4306313438B602368EA
:100FB800624A934215D0624A934228D002F5806271
:100FC800934220D01025E369B3F5004F21D0082DB6
:100FD80000F2A680DFE805F06B7C86A491A4A4A4A7
:100FE8009B00584B1B6B03F00303032B09D8DFE866
:100FF80003F00204060C0025E5E70425E3E70825CD
:10100800E1E71025DFE70025DDE70225DBE700251E
:10101800D9E7082D48D8DFE805F0051D28473347EC
:1010280047473E00FFF778FF6268530803EB400329
:10103800B3FBF2F39BB2A3F110014FF6EF729142AA
:1010480071D89AB222F00F02C3F342031343226805
:10105800D3606BE0FFF776FF6268530803EB400349
:10106800B3FBF2F39BB20025E5E76268530803F58A
:10107800740303F51053B3FBF2F39BB20025DAE7D0
:10108800FFF738FE6268530803EB4003B3FBF2F343
:101098009BB20025CFE76268530803F58033B3FBA2
:1010A800F2F39BB20025C6E701250023C3E7FFF74B
:1010B80033FF626800EB5203B3FBF2F39BB2A3F178
:1010C80010014FF6EF7291422FD82268D3602DE0BD
:1010D800FFF738FF626800EB5203B3FBF2F39BB2F1
:1010E8000025ECE76268530803F5F40303F5905311
:1010F800B3FBF2F39BB20025E1E7FFF7FBFD626863
:1011080000EB5203B3FBF2F39BB20025D7E762680A
:10111800530803F50043B3FBF2F39BB20025CEE777
:1011280001250023CBE7012500E0012500232366E4
:101138006366284638BD00BFF369FFEF00380140F9
:101148000044004000100240436A13F0010F06D02B
:101158000268536823F40033816A0B435360436A7F
:1011680013F0020F06D00268536823F48033C16A73
:101178000B435360436A13F0040F06D002685368A8
:1011880023F48023016B0B435360436A13F0080F69
:1011980006D00268536823F40043416B0B43536045
:1011A800436A13F0100F06D00268936823F4805343
:1011B800816B0B439360436A13F0200F06D00268DB
:1011C800936823F40053C16B0B439360436A13F095
:1011D800400F0AD00268536823F48013016C0B4354
:1011E8005360036CB3F5801F0BD0436A13F0800F74
:1011F80006D00268536823F40023816C0B435360C4
:1012080070470268536823F4C003416C0B43536072
:10121800EBE72DE9F84305460F4616469946DDF8F3
:1012280020802C68E46937EA04030CBF01240024F9
:10123800B4423CD1B8F1FF3FF3D0FFF715F9A0EB6A
:101248000900404521D8B8F1000F1ED02B681A6854
:1012580012F0040FE5D0DA6912F4006FE1D04FF410
:1012680000621A622A68136823F4D07313602A682C
:10127800936823F00103936020236B67AB67EB67E8
:10128800002385F87030032012E02A68136823F4DD
:10129800D07313602A68936823F0010393602023B6
:1012A8006B67AB67002385F87030032000E00020EF
:1012B800BDE8F88330B583B004460023C367FFF761
:1012C800D3F8054623681B6813F0080F0CD1236870
:1012D8001B6813F0040F15D120236367A367002050
:1012E80084F8700003B030BD6FF07E43009303466E
:1012F80000224FF400112046FFF78BFF0028E6D0AC
:101308000320EFE76FF07E4300932B4600224FF453
:1013180080012046FFF77DFF0028DDD00320E1E7AC
:1013280068B310B50446436F03B324236367226888
:10133800136823F0010313602046FFF719FE012804
:1013480013D0636ABBB92268536823F4904353608F
:101358002268936823F02A0393602268136843F095
:10136800010313602046FFF7A5FF10BD80F8703019
:10137800FFF702F8D9E72046FFF7E6FEE3E701208A
:1013880070470000DFF834D0002103E00C4B5B58B5
:10139800435004310B480C4B42189A42F6D30B4A7F
:1013A80002E0002342F8043B094B9A42F9D3FEF7C6
:1013B800B9FF00F011F8FEF77DFFFEE700400020BE
:1013C800CC260008000000204C0800204C08002013
:1013D8004C090020FEE7000070B50D4E0D4D761B40
:1013E800B61006D0002455F8043B01349847A642AD
:1013F800F9D1094E094D761B01F034F9B61006D023
:10140800002455F8043B01349847A642F9D170BD31
:10141800C0260008C0260008C8260008C026000804
:10142800F0B4860746D0541E002A3CD0CAB2034600
:1014380001E0013C37D303F8012B9D07F9D1032CB8
:101448002AD9CDB245EA05250F2C45EA054534D9F8
:10145800A4F1100222F00F0C03F1200716096744CB
:1014680003F1100242E9045542E902551032BA422A
:10147800F8D1721C14F00C0F03EB021204F00F06E3
:1014880013D0331F23F003030433134442F8045BDF
:101498009342FBD106F003042CB1CAB21C4403F8F2
:1014A800012B9C42FBD1F0BC704734461346002CFC
:1014B800F3D1F8E714460346C1E71A462646E0E7A3
:1014C800034B1B6801469A68184600F031B800BF04
:1014D8000C000020024B13B1024800F005B8704719
:1014E80000000000FD140008002301461A461846B3
:1014F80000F018B938B5084B084D5B1B9C1007D095
:10150800043B1D44013C55F804399847002CF9D197
:10151800BDE8384001F0ACB8CC260008C826000861
:10152800704700BF704700BF704700BF704700BFDB
:1015380070B50E461446054608B1836BEBB1636E71
:10154800D80702D4A389990523D5A368013B002BAA
:10155800A3601CDAA269934212DBF0B20A280FD00A
:1015680023685A1C226005461E70636EDA0702D48F
:10157800A3899B0511D5284670BD00F00DFADEE75A
:1015880028463146224600F00DF80546EDE7F0B250
:10159800E6E7A06DFFF7C8FFD7E7A06DFFF7C6FF26
:1015A800284670BDF8B50D461446064610B1836B43
:1015B800002B43D0B4F90C20A369A360170790B29D
:1015C8001BD52369CBB1EDB281042F4622D5226801
:1015D8006169D31A994229DD0133A168501C013988
:1015E800A1602060157062699A422AD0A389DB073E
:1015F80001D50A2D25D03846F8BD2146304600F0E1
:1016080029F820BBB4F90C20236990B2EDB281040B
:101618002F46DCD4616E42F4005221F40051A281BD
:10162800226861666169D31A9942D5DC2146304641
:1016380000F056F958B922680123CEE700F0ACF95A
:10164800B8E72146304600F04BF90028D3D04FF0D8
:10165800FF37D0E738B5324B1B6805460C4613B147
:101668009A6B002A3CD0B4F90C3018079AB20CD502
:101678002169A9B112F0010022D060690025404219
:10168800A061A56011B3002038BDD10640D552072E
:101698002AD4216943F00803A3819AB20029E9D129
:1016A80002F42070B0F5007FE4D02846214600F00F
:1016B8004FFBB4F90C3021699AB212F00100DCD169
:1016C800950758BF6069A0600029DCD1120658BF91
:1016D8000846D9D543F04003A3814FF0FF3038BD09
:1016E800184600F059F9BEE7216B51B104F14002E8
:1016F800914204D0284600F0D5F9B4F90C30002204
:101708002263216921600022626023F02403C1E77B
:1017180043F0400309222A604FF0FF30A38138BD0F
:101728000C0000202DE9F047DFF880A00646DAF823
:10173800000098460F469146FFF7F6FE1A4B1B68C5
:10174800D3F8484124B365681F2D26DC5EB9AB1C6D
:101758000135DAF80000656044F82370FFF7E6FE0B
:101768000020BDE8F08704EB85030121C3F88890C9
:10177800D4F88821A9400A43022EC4F88821C3F866
:101788000881E4D1D4F88C311943C4F88C11DEE710
:1017980003F5A674C3F84841D5E7DAF80000FFF767
:1017A800C5FE4FF0FF30DCE7BC26000838040020F7
:1017B800B1F90C202DE9F0410D461107804647D4B8
:1017C8006B6842F40062002BAA815DDDAC6A002CD4
:1017D80057D00023D8F80060C8F8003093B212F44C
:1017E800805255D10123E9694046A047431C66D081
:1017F800AB89AC6A5F0705D56A682B6B801A0BB199
:10180800EB6BC01AE969024600234046A047411C19
:1018180040D1D8F80030002B3CD01D2B01D0162B1E
:1018280055D1AB892A692A6023F400630022AB8171
:101838006A60296BC8F8006019B305F14003994242
:1018480002D0404600F02EF900202863BDE8F08160
:101858002F69B7B193B22E682F609A070CBF6B69D6
:101868000023F61BAB600AE06C6AE96933463A4626
:101878004046A047041EA6EB0406274417DD002EA9
:10188800F2DC0020BDE8F081EB6B002B9EDCF8E772
:10189800286DAFE7B5F90C302A692A6023F4006394
:1018A8000022AB81DB046A60C3D52865C1E7AB8938
:1018B80043F04003AB814FF0FF30BDE8F081D8F82A
:1018C8000030002B94D01D2B06D0162B04D0AB89EA
:1018D80043F04003AB81D5E7C8F80060D1E700BF0B
:1018E80038B50C46054608B1836BA3B1B4F90C00B2
:1018F800B8B1636EDB0701D4810515D528462146AA
:10190800FFF756FF636EDA07054602D4A3899B05E5
:101918000ED5284638BD00F03FF8B4F90C00002871
:10192800E7D10546284638BDA06DFFF7FDFDE5E780
:10193800A06DFFF7FBFD284638BD00BF10B500239A
:101948000446C0E90033C0E904338181C281836061
:1019580043668361194608225C30FFF761FD07483A
:101968000749084A084BE362C4E90740C4E9091279
:1019780004F15800BDE81040FFF7D2BDA1230008CC
:10198800C52300080524000825240008014900F0A3
:101998008DB900BF7D24000810B504461148FFF733
:1019A800C3FDA26BC2B904F53B730F48C4F8E0222B
:1019B8000321C4E9B913E06304216068FFF7BEFF9F
:1019C800A06801220921FFF7B9FFE068022212216D
:1019D800FFF7B4FF0123A363BDE810400148FFF7F8
:1019E800A5BD00BF30090020951900080148FFF780
:1019F8009BBD00BF440900200148FFF797BD00BF09
:101A080044090020F8B5244F0C46064600F0A6FC11
:101A1800BB685D68C4F57E610F3125F003054B197D
:101A280023F47F6323F00F03A3F58054B4F5805F9C
:101A380007DB0021304600F09DFCBB682B44984230
:101A480004D0304600F090FC0020F8BD61423046DA
:101A580000F090FC01300DD0104AB96813682D1BB6
:101A680045F0010530461B1B4D60136000F07CFCFF
:101A78000120F8BD0021304600F07CFCBA68831ACA
:101A88000F2BDEDD064C0549246843F00103001BDB
:101A980053600860D5E700BF3C04002068080020B8
:101AA8004408002000295ED0F8B50C46064600F030
:101AB80055FC54F8043CDFF8F0C123F00101A4F10F
:101AC80008004218DCF808705568974225F00305AD
:101AD80000F08880DF07556033D454F8087CC01BB9
:101AE8000CF108048368A342394469D05719D0F827
:101AF8000CE07F68C3F80CE0CEF80830FB0740F133
:101B0800968041F0010343601160B1F5007F33D244
:101B1800CB08DCF8044001334A09012191402143F4
:101B28000CEBC3025CF83340CCF80410083AC0E967
:101B380002424CF83300E0603046BDE8F84000F05F
:101B480013BC53195B68DF070ED429440CF1080451
:101B58009368A34273D0D468DC6041F00102A360AB
:101B680042604150D1E7704741F00103B1F5007F71
:101B780044F8043C1160CBD3B1F5206F4FEA5123F0
:101B88004AD28B0903F13905ED0003F138025CF8FC
:101B980005300CEB0504083C9C4259D05A6822F0E9
:101BA80003028A4202D99B689C42F7D1DC68C0E9EB
:101BB8000234A060D8603046BDE8F84000F0D4BBDD
:101BC80053195B68DB0766D4D2E90223294441F044
:101BD8000104D3609A60446041503046BDE8F84043
:101BE80000F0C2BBDB07294407D454F8083CC01AEC
:101BF8001944D0E90223D3609A60294B1B6841F04D
:101C080001028B424260CCF8080095D8254B30463B
:101C18001968FFF7F7FE8FE7142B0AD9542B21D840
:101C28000B0B03F16F05ED0003F16E02AFE72944DA
:101C38008EE703F15C05ED0003F15B02A7E741F0D5
:101C48000103CCE90400C0E902444360415073E752
:101C5800DCF804109210012505FA02F20A43CCF8C8
:101C68000420A4E7B3F5AA7F06D8CB0B03F17805C7
:101C7800ED0003F177028AE740F25452934206D806
:101C88008B0C03F17D05ED0003F17C027FE74FF437
:101C98007E757E227BE741F00103436011604BE7CC
:101CA80048080020980800203C0400202DE9F8434B
:101CB8000746884600F538764FF00009D6E9015402
:101CC800013D11D4A389012B05F1FF3508D9B4F9D9
:101CD8000E30013304D021463846C04749EA00098E
:101CE8006B1C04F16804EDD13668002EE6D1484635
:101CF800BDE8F88370B50C46B1F90E10002996B00E
:101D080015461E4614DB6A4600F01AFC00280FDB55
:101D1800019A02F47042A2F50052B2FA82F2520914
:101D28004FF480634FF4006032602B6016B070BDD2
:101D3800A189002311F08000336004D040221846A6
:101D48002A6016B070BD4FF480632B6016B070BD6A
:101D580070B58B899D0782B00C4607D501F1430306
:101D68000122C1E904320B6002B070BD01AB6A46C2
:101D78000646FFF7BFFF00990546304600F034F8E5
:101D880080B1B4F90C20174BF3630199206042F03D
:101D98008003009AA381C4E9040299B92B43A38163
:101DA80002B070BDB4F90C309A05DDD423F00303FA
:101DB80004F1430243F002030121C4E90421A38191
:101DC8002260D1E7B4F90E10304600F0CFFB10B90D
:101DD800B4F90C30E2E7A28922F0030242F00102D2
:101DE80013B2DBE7951900082DE9F04F01F10B0557
:101DF800162D83B0064624D8102900F2B78000F0CB
:101E0800ADFA102502211823DFF8F0844344A3F12A
:101E180008025C68944200F0B580636823F003030D
:101E28002344D4E902515A68E96042F0010230467D
:101E38008D605A6000F098FA0834204603B0BDE877
:101E4800F08F35F0070500F19180A94200F28E80ED
:101E580000F084FAB5F5FC7FC0F090816B0A00F0C1
:101E68008C80042B00F26681AB0903F1390103F180
:101E78003807CB00DFF884844344A3F108005C688A
:101E8800A04206D10CE0002A80F22281E468A04238
:101E980006D0636823F003035A1B0F2AF3DD394683
:101EA800D8F81040DFF858C4644577D0626822F04B
:101EB8000302531B0F2B00F36F81002BC8E904CCDE
:101EC80080F26081B2F5007F80F01081D308013381
:101ED800500901228240D8F8040058F83370A760EE
:101EE80008EBC30E0243AEF10800E060C8F8042016
:101EF80048F83340FC608B1001209840904254D839
:101F0800104206D121F003014000104201F1040102
:101F1800FAD008EBC1094C468E46E768BC4207D1A7
:101F280014E1002B80F21B81FF68BC4200F00E8197
:101F38007A6822F00302531B0F2BF2DDD7E902E483
:101F4800791945F001057D6043F00105CEF80C4094
:101F58003046C4F808E0C8E90411C1E902CC4D6074
:101F6800BB5000F001FA07F1080402E00C233360CB
:101F78000024204603B0BDE8F08F4FF400734021E1
:101F88003F2777E7DC68A34208BF02317FF445AFFB
:101F9800D8F81040DFF868C3644587D1D8F8042022
:101FA8008B10012098409042AAD9D8F80840676859
:101FB80027F00307BD4202D87B1B0F2B77DCDFF825
:101FC8004493CA4BD9F800201B6801322B4404EB18
:101FD800070A00F02E8103F580530F3323F47F6B3B
:101FE8002BF00F0B5946304600F0C4F9411C02464D
:101FF80000F0EB80824500F2E680BD4B1968594439
:102008001960084600F04B81D9F80010019301319E
:102018001BBFA2EB0A0A5044C9F80020186012F04E
:10202800070A00F01481CAF108010A44CAF5805170
:1020380093440831A1EB0B01C1F30B094946304623
:10204800009200F097F9421CDDE9002300F05C8162
:10205800801A00EB090B1968C8F808204BF001003A
:10206800494444455060196000F026810F2F40F222
:10207800258160680C3F27F0070700F0010004EB9A
:10208800070C38434FF0050E0F2F6060CCE901EEC6
:1020980000F2428150681446964B1A688A4238BF4B
:1020A8001960954B1A688A4238BF196090E0621926
:1020B80043F0010345F0010565603046C8F8082083
:1020C800536000F051F90834204603B0BDE8F08FA2
:1020D8002344E1685A68A56842F00102E960304685
:1020E8008D605A6000F040F9083442E7B2F5206F7D
:1020F8004FEA522361D3142B00F2BA8003F15C003B
:10210800C0005B3308EB000758F80000083F87421F
:1021180000F09280436823F00303934202D9806859
:102128008742F7D1C768D8F80420C4E90207BC6021
:10213800C460E0E6142B59D9542B00F2A1802B0B74
:1021480003F16F0103F16E07CB0093E60EF1010E68
:102158001EF0030F04F108047FF4DFAE51E03A44A7
:102168003C465368F96854F8085F43F0010353602C
:102178003046E9608D6000F0F7F8FAE6E90805F105
:10218800080341E622443046536843F00103536094
:10219800083400F0E9F8ECE6611943F0010745F06E
:1021A800010565603046C8E90411C1E902CC4F60F9
:1021B800A35000F0D9F80834DBE6930903F139009D
:1021C800C00038339EE7444564D0D8F808406068BA
:1021D80020F0030B5D45ABEB050302D80F2B3FF74F
:1021E80066AF304600F0C0F80024C2E603F15C0197
:1021F80003F15B07CB003DE659F808394B4540F041
:10220800AA8011F0030F01F1FF31F5D1D8F804309D
:1022180023EA0003C8F80430400098423FF6C5AEF0
:1022280018B9C2E640000EF1040E1842FAD0714601
:102238006FE603F1100BD5E69A104FF0010ED8F8AF
:1022480004300EFA02F21A43C8F804206DE702EBD4
:102258000B014942C1F30B0949463046009200F090
:1022680089F8431CDDE900237FF4F2AED146F2E69B
:10227800542B26D8130B03F16F00C0006E3341E7CF
:10228800B3F5AA7F26D8EB0B03F1780103F17707A2
:10229800CB00EFE5164B186858441860B4E6CAF34B
:1022A8000B0CBCF1000F7FF4AFAED8F80840BB446C
:1022B8004BF001006060EFE61446EDE60123536041
:1022C8008FE7B3F5AA7F33D8D30B03F17800C000AA
:1022D800773317E740F25452934233D8AB0C03F1EB
:1022E8007D0103F17C07CB00C4E500BF98080020FE
:1022F8006808002090080020940800203C04002072
:102308004404002044080020AAF1080AD344ABEB97
:10231800020B4FF000099EE604F1080130460093D5
:10232800FFF7C0FBD8F80840009B60681968B3E65F
:1023380040F2545083420AD8930C03F17D00C00048
:102348007C33DFE64FF47E737F217E2792E54FF4DE
:102358007E707E23D6E6D8F804305DE70148FFF7A3
:10236800E3B800BF340900200148FFF7DFB800BF19
:102378003409002038B5074D0022044608462A6073
:1023880000F05AF9431C00D038BD2B68002BFBD055
:10239800236038BD4809002010B50C46B1F90E106D
:1023A80000F00CF9002803DB236D0344236510BDFE
:1023B800A38923F48053A38110BD00BF2DE9F04108
:1023C800B1F90C509846EB050C46174606460BD457
:1023D80025F48055B4F90E10A58143463A46304697
:1023E800BDE8F04100F01EB8B1F90E10022300223A
:1023F80000F0CEF8B4F90C50EAE700BF10B50C466F
:10240800B1F90E1000F0C4F8A389421C0EBF23F4E2
:10241800805343F480532065A38110BDB1F90E1099
:1024280000F016B870B50C46084D114600261A463D
:10243800034620462E601C4600F00CF9431C00D0D1
:1024480070BD2B68002BFBD0236070BD48090020AD
:1024580038B5074D0022044608462A6000F0C4F843
:10246800431C00D038BD2B68002BFBD0236038BD3F
:102478004809002070B500294BD00C46054610B11C
:10248800836B002B48D0636ED80734D5B4F90C3071
:10249800002B3ED021462846FFF78AF9E36A064614
:1024A80033B1E169284698470028B8BF4FF0FF3696
:1024B800A3891A063BD4216B41B104F14003994228
:1024C80002D02846FFF7EEFA00232363616C21B19E
:1024D8002846FFF7E7FA00236364FFF787FA636E7D
:1024E8000022DB07A28127D5A06DFFF71BF8FFF7B5
:1024F80083FA304670BDA3899905CBD4A06DFFF748
:1025080013F8B4F90C30002BC4D1666E16F001062E
:1025180008D00026304670BDFFF73EFA636ED80734
:10252800B4D4E8E7A06DFFF701F8304670BD216923
:102538002846FFF7B7FABEE7A06DFEF7F7FFD3E727
:1025480038B50C46084D03461146204600221C4665
:102558002A6000F051F8431C00D038BD2B68002BCE
:10256800FBD0236038BD00BF4809002038B5074DAF
:102578000022044608462A6000F046F8431C00D0B2
:1025880038BD2B68002BFBD0236038BD48090020DC
:1025980070B50C46084D114600261A4603462046DB
:1025A8002E601C4600F038F8431C00D070BD2B6824
:1025B800002BFBD0236070BD4809002070B50C4685
:1025C800084D114600261A46034620462E601C4632
:1025D80000F02AF8431C00D070BD2B68002BFBD0FC
:1025E800236070BD48090020024B58221A604FF042
:1025F800FF30704748090020024B58221A604FF0FC
:10260800FF30704748090020024B58221A6000200A
:10261800704700BF48090020024B58221A604FF04B
:10262800FF30704748090020024B58221A604FF0CB
:10263800FF30704748090020044A05491368002BF9
:1026480008BF0B4618441060184670479C080020C5
:1026580050090020024B58221A604FF0FF30704793
:1026680048090020F8B500BFF8BC08BC9E46704772
:0C267800F8B500BFF8BC08BC9E467047D7
:10268400000000000000000001020304060708091E
:102694000000000001020304020304050607080900
:1026A4000A0B0C0D0E0F1010010203040506070897
:0C26B400090A0B0C0D0E0F101000002086
:0826C000DD140008AD01000863
:0426C800890100087C
:1026CC0000127A0001000000100000001000002031
:1026DC0000000000FC02002064030020CC0300205A
:1026EC0000000000000000000000000000000000DE
:1026FC0000000000000000000000000000000000CE
:10270C0000000000000000000000000000000000BD
:10271C0000000000000000000000000000000000AD
:10272C00000000000000000000000000000000009D
:10273C00000000000000000000000000000000008D
:10274C00000000000000000000000000000000007D
:10275C00000000000000000000000000000000006D
:10276C00000000000000000000000000000000005D
:10277C00000000000000000001000000000000004C
:10278C000E33CDAB34126DE6ECDE05000B00000011
:10279C00000000000000000000000000000000002D
:1027AC00000000000000000000000000000000001D
:1027BC00000000000000000000000000000000000D
:1027CC0000000000000000000000000000000000FD
:102AFC00000000000000000024090020000000007D
:102B0C00000000003C0400203C0400204404002091
:102B1C00440400204C0400204C04002054040020E9
:102B2C00540400205C0400205C0400206404002099
:102B3C00640400206C0400206C0400207404002049
:102B4C00740400207C0400207C04002084040020F9
:102B5C00840400208C0400208C04002094040020A9
:102B6C00940400209C0400209C040020A404002059
:102B7C00A4040020AC040020AC040020B404002009
:102B8C00B4040020BC040020BC040020C4040020B9
:102B9C00C4040020CC040020CC040020D404002069
:102BAC00D4040020DC040020DC040020E404002019
:102BBC00E4040020EC040020EC040020F4040020C9
:102BCC00F4040020FC040020FC0400200405002078
:102BDC00040500200C0500200C0500201405002025
:102BEC00140500201C0500201C05002024050020D5
:102BFC00240500202C0500202C0500203405002085
:102C0C00340500203C0500203C0500204405002034
:102C1C00440500204C0500204C05002054050020E4
:102C2C00540500205C0500205C0500206405002094
:102C3C00640500206C0500206C0500207405002044
:102C4C00740500207C0500207C05002084050020F4
:102C5C00840500208C0500208C05002094050020A4
:102C6C00940500209C0500209C050020A405002054
:102C7C00A4050020AC050020AC050020B405002004
:102C8C00B4050020BC050020BC050020C4050020B4
:102C9C00C4050020CC050020CC050020D405002064
:102CAC00D4050020DC050020DC050020E405002014
:102CBC00E4050020EC050020EC050020F4050020C4
:102CCC00F4050020FC050020FC0500200406002073
:102CDC00040600200C0600200C0600201406002020
:102CEC00140600201C0600201C06002024060020D0
:102CFC00240600202C0600202C0600203406002080
:102D0C00340600203C0600203C060020440600202F
:102D1C00440600204C0600204C06002054060020DF
:102D2C00540600205C0600205C060020640600208F
:102D3C00640600206C0600206C060020740600203F
:102D4C00740600207C0600207C06002084060020EF
:102D5C00840600208C0600208C060020940600209F
:102D6C00940600209C0600209C060020A40600204F
:102D7C00A4060020AC060020AC060020B4060020FF
:102D8C00B4060020BC060020BC060020C4060020AF
:102D9C00C4060020CC060020CC060020D40600205F
:102DAC00D4060020DC060020DC060020E40600200F
:102DBC00E4060020EC060020EC060020F4060020BF
:102DCC00F4060020FC060020FC060020040700206E
:102DDC00040700200C0700200C070020140700201B
:102DEC00140700201C0700201C07002024070020CB
:102DFC00240700202C0700202C070020340700207B
:102E0C00340700203C0700203C070020440700202A
:102E1C00440700204C0700204C07002054070020DA
:102E2C00540700205C0700205C070020640700208A
:102E3C00640700206C0700206C070020740700203A
:102E4C00740700207C0700207C07002084070020EA
:102E5C00840700208C0700208C070020940700209A
:102E6C00940700209C0700209C070020A40700204A
:102E7C00A4070020AC070020AC070020B4070020FA
:102E8C00B4070020BC070020BC070020C4070020AA
:102E9C00C4070020CC070020CC070020D40700205A
:102EAC00D4070020DC070020DC070020E40700200A
:102EBC00E4070020EC070020EC070020F4070020BA
:102ECC00F4070020FC070020FC0700200408002069
:102EDC00040800200C0800200C0800201408002016
:102EEC00140800201C0800201C08002024080020C6
:102EFC00240800202C0800202C0800203408002076
:0C2F0C0034080020FFFFFFFF000002005F
:040000050800138D4F
:00000001FF
